{
  "contractName": "MorseV2",
  "abi": [
    {
      "inputs": [
        {
          "internalType": "string",
          "name": "_name",
          "type": "string"
        },
        {
          "internalType": "string",
          "name": "_symbol",
          "type": "string"
        },
        {
          "internalType": "string",
          "name": "_initBaseURI",
          "type": "string"
        },
        {
          "internalType": "string",
          "name": "_initNotRevealedURI",
          "type": "string"
        }
      ],
      "stateMutability": "nonpayable",
      "type": "constructor"
    },
    {
      "anonymous": false,
      "inputs": [
        {
          "indexed": true,
          "internalType": "address",
          "name": "owner",
          "type": "address"
        },
        {
          "indexed": true,
          "internalType": "address",
          "name": "approved",
          "type": "address"
        },
        {
          "indexed": true,
          "internalType": "uint256",
          "name": "tokenId",
          "type": "uint256"
        }
      ],
      "name": "Approval",
      "type": "event"
    },
    {
      "anonymous": false,
      "inputs": [
        {
          "indexed": true,
          "internalType": "address",
          "name": "owner",
          "type": "address"
        },
        {
          "indexed": true,
          "internalType": "address",
          "name": "operator",
          "type": "address"
        },
        {
          "indexed": false,
          "internalType": "bool",
          "name": "approved",
          "type": "bool"
        }
      ],
      "name": "ApprovalForAll",
      "type": "event"
    },
    {
      "anonymous": false,
      "inputs": [
        {
          "indexed": true,
          "internalType": "address",
          "name": "previousOwner",
          "type": "address"
        },
        {
          "indexed": true,
          "internalType": "address",
          "name": "newOwner",
          "type": "address"
        }
      ],
      "name": "OwnershipTransferred",
      "type": "event"
    },
    {
      "anonymous": false,
      "inputs": [
        {
          "indexed": true,
          "internalType": "address",
          "name": "from",
          "type": "address"
        },
        {
          "indexed": true,
          "internalType": "address",
          "name": "to",
          "type": "address"
        },
        {
          "indexed": true,
          "internalType": "uint256",
          "name": "tokenId",
          "type": "uint256"
        }
      ],
      "name": "Transfer",
      "type": "event"
    },
    {
      "inputs": [
        {
          "internalType": "address",
          "name": "to",
          "type": "address"
        },
        {
          "internalType": "uint256",
          "name": "tokenId",
          "type": "uint256"
        }
      ],
      "name": "approve",
      "outputs": [],
      "stateMutability": "nonpayable",
      "type": "function"
    },
    {
      "inputs": [
        {
          "internalType": "address",
          "name": "owner",
          "type": "address"
        }
      ],
      "name": "balanceOf",
      "outputs": [
        {
          "internalType": "uint256",
          "name": "",
          "type": "uint256"
        }
      ],
      "stateMutability": "view",
      "type": "function",
      "constant": true
    },
    {
      "inputs": [],
      "name": "baseExtension",
      "outputs": [
        {
          "internalType": "string",
          "name": "",
          "type": "string"
        }
      ],
      "stateMutability": "view",
      "type": "function",
      "constant": true
    },
    {
      "inputs": [],
      "name": "cost",
      "outputs": [
        {
          "internalType": "uint256",
          "name": "",
          "type": "uint256"
        }
      ],
      "stateMutability": "view",
      "type": "function",
      "constant": true
    },
    {
      "inputs": [
        {
          "internalType": "uint256",
          "name": "tokenId",
          "type": "uint256"
        }
      ],
      "name": "getApproved",
      "outputs": [
        {
          "internalType": "address",
          "name": "",
          "type": "address"
        }
      ],
      "stateMutability": "view",
      "type": "function",
      "constant": true
    },
    {
      "inputs": [
        {
          "internalType": "address",
          "name": "owner",
          "type": "address"
        },
        {
          "internalType": "address",
          "name": "operator",
          "type": "address"
        }
      ],
      "name": "isApprovedForAll",
      "outputs": [
        {
          "internalType": "bool",
          "name": "",
          "type": "bool"
        }
      ],
      "stateMutability": "view",
      "type": "function",
      "constant": true
    },
    {
      "inputs": [],
      "name": "maxMintAmount",
      "outputs": [
        {
          "internalType": "uint256",
          "name": "",
          "type": "uint256"
        }
      ],
      "stateMutability": "view",
      "type": "function",
      "constant": true
    },
    {
      "inputs": [],
      "name": "maxSupply",
      "outputs": [
        {
          "internalType": "uint256",
          "name": "",
          "type": "uint256"
        }
      ],
      "stateMutability": "view",
      "type": "function",
      "constant": true
    },
    {
      "inputs": [],
      "name": "name",
      "outputs": [
        {
          "internalType": "string",
          "name": "",
          "type": "string"
        }
      ],
      "stateMutability": "view",
      "type": "function",
      "constant": true
    },
    {
      "inputs": [],
      "name": "notRevealedURI",
      "outputs": [
        {
          "internalType": "string",
          "name": "",
          "type": "string"
        }
      ],
      "stateMutability": "view",
      "type": "function",
      "constant": true
    },
    {
      "inputs": [],
      "name": "owner",
      "outputs": [
        {
          "internalType": "address",
          "name": "",
          "type": "address"
        }
      ],
      "stateMutability": "view",
      "type": "function",
      "constant": true
    },
    {
      "inputs": [
        {
          "internalType": "uint256",
          "name": "tokenId",
          "type": "uint256"
        }
      ],
      "name": "ownerOf",
      "outputs": [
        {
          "internalType": "address",
          "name": "",
          "type": "address"
        }
      ],
      "stateMutability": "view",
      "type": "function",
      "constant": true
    },
    {
      "inputs": [],
      "name": "paused",
      "outputs": [
        {
          "internalType": "bool",
          "name": "",
          "type": "bool"
        }
      ],
      "stateMutability": "view",
      "type": "function",
      "constant": true
    },
    {
      "inputs": [],
      "name": "renounceOwnership",
      "outputs": [],
      "stateMutability": "nonpayable",
      "type": "function"
    },
    {
      "inputs": [],
      "name": "revealed",
      "outputs": [
        {
          "internalType": "bool",
          "name": "",
          "type": "bool"
        }
      ],
      "stateMutability": "view",
      "type": "function",
      "constant": true
    },
    {
      "inputs": [
        {
          "internalType": "address",
          "name": "from",
          "type": "address"
        },
        {
          "internalType": "address",
          "name": "to",
          "type": "address"
        },
        {
          "internalType": "uint256",
          "name": "tokenId",
          "type": "uint256"
        }
      ],
      "name": "safeTransferFrom",
      "outputs": [],
      "stateMutability": "nonpayable",
      "type": "function"
    },
    {
      "inputs": [
        {
          "internalType": "address",
          "name": "from",
          "type": "address"
        },
        {
          "internalType": "address",
          "name": "to",
          "type": "address"
        },
        {
          "internalType": "uint256",
          "name": "tokenId",
          "type": "uint256"
        },
        {
          "internalType": "bytes",
          "name": "_data",
          "type": "bytes"
        }
      ],
      "name": "safeTransferFrom",
      "outputs": [],
      "stateMutability": "nonpayable",
      "type": "function"
    },
    {
      "inputs": [
        {
          "internalType": "address",
          "name": "operator",
          "type": "address"
        },
        {
          "internalType": "bool",
          "name": "approved",
          "type": "bool"
        }
      ],
      "name": "setApprovalForAll",
      "outputs": [],
      "stateMutability": "nonpayable",
      "type": "function"
    },
    {
      "inputs": [
        {
          "internalType": "bytes4",
          "name": "interfaceId",
          "type": "bytes4"
        }
      ],
      "name": "supportsInterface",
      "outputs": [
        {
          "internalType": "bool",
          "name": "",
          "type": "bool"
        }
      ],
      "stateMutability": "view",
      "type": "function",
      "constant": true
    },
    {
      "inputs": [],
      "name": "symbol",
      "outputs": [
        {
          "internalType": "string",
          "name": "",
          "type": "string"
        }
      ],
      "stateMutability": "view",
      "type": "function",
      "constant": true
    },
    {
      "inputs": [
        {
          "internalType": "uint256",
          "name": "index",
          "type": "uint256"
        }
      ],
      "name": "tokenByIndex",
      "outputs": [
        {
          "internalType": "uint256",
          "name": "",
          "type": "uint256"
        }
      ],
      "stateMutability": "view",
      "type": "function",
      "constant": true
    },
    {
      "inputs": [
        {
          "internalType": "address",
          "name": "owner",
          "type": "address"
        },
        {
          "internalType": "uint256",
          "name": "index",
          "type": "uint256"
        }
      ],
      "name": "tokenOfOwnerByIndex",
      "outputs": [
        {
          "internalType": "uint256",
          "name": "",
          "type": "uint256"
        }
      ],
      "stateMutability": "view",
      "type": "function",
      "constant": true
    },
    {
      "inputs": [],
      "name": "totalSupply",
      "outputs": [
        {
          "internalType": "uint256",
          "name": "",
          "type": "uint256"
        }
      ],
      "stateMutability": "view",
      "type": "function",
      "constant": true
    },
    {
      "inputs": [
        {
          "internalType": "address",
          "name": "from",
          "type": "address"
        },
        {
          "internalType": "address",
          "name": "to",
          "type": "address"
        },
        {
          "internalType": "uint256",
          "name": "tokenId",
          "type": "uint256"
        }
      ],
      "name": "transferFrom",
      "outputs": [],
      "stateMutability": "nonpayable",
      "type": "function"
    },
    {
      "inputs": [
        {
          "internalType": "address",
          "name": "newOwner",
          "type": "address"
        }
      ],
      "name": "transferOwnership",
      "outputs": [],
      "stateMutability": "nonpayable",
      "type": "function"
    },
    {
      "inputs": [
        {
          "internalType": "uint256",
          "name": "_mintAmount",
          "type": "uint256"
        }
      ],
      "name": "mint",
      "outputs": [],
      "stateMutability": "payable",
      "type": "function",
      "payable": true
    },
    {
      "inputs": [
        {
          "internalType": "address",
          "name": "_owner",
          "type": "address"
        }
      ],
      "name": "walletOfOwner",
      "outputs": [
        {
          "internalType": "uint256[]",
          "name": "",
          "type": "uint256[]"
        }
      ],
      "stateMutability": "view",
      "type": "function",
      "constant": true
    },
    {
      "inputs": [
        {
          "internalType": "uint256",
          "name": "tokenId",
          "type": "uint256"
        }
      ],
      "name": "tokenURI",
      "outputs": [
        {
          "internalType": "string",
          "name": "",
          "type": "string"
        }
      ],
      "stateMutability": "view",
      "type": "function",
      "constant": true
    },
    {
      "inputs": [],
      "name": "reveal",
      "outputs": [],
      "stateMutability": "nonpayable",
      "type": "function"
    },
    {
      "inputs": [
        {
          "internalType": "uint256",
          "name": "_newCost",
          "type": "uint256"
        }
      ],
      "name": "setCost",
      "outputs": [],
      "stateMutability": "nonpayable",
      "type": "function"
    },
    {
      "inputs": [
        {
          "internalType": "uint256",
          "name": "_newAmount",
          "type": "uint256"
        }
      ],
      "name": "setMaxMintAmount",
      "outputs": [],
      "stateMutability": "nonpayable",
      "type": "function"
    },
    {
      "inputs": [
        {
          "internalType": "string",
          "name": "_notRevealedURI",
          "type": "string"
        }
      ],
      "name": "setNotRevealedURI",
      "outputs": [],
      "stateMutability": "nonpayable",
      "type": "function"
    },
    {
      "inputs": [
        {
          "internalType": "string",
          "name": "_URI",
          "type": "string"
        }
      ],
      "name": "setBaseURI",
      "outputs": [],
      "stateMutability": "nonpayable",
      "type": "function"
    },
    {
      "inputs": [
        {
          "internalType": "string",
          "name": "_baseExtension",
          "type": "string"
        }
      ],
      "name": "setBaseExtension",
      "outputs": [],
      "stateMutability": "nonpayable",
      "type": "function"
    },
    {
      "inputs": [
        {
          "internalType": "bool",
          "name": "_state",
          "type": "bool"
        }
      ],
      "name": "pause",
      "outputs": [],
      "stateMutability": "nonpayable",
      "type": "function"
    },
    {
      "inputs": [],
      "name": "withdraw",
      "outputs": [],
      "stateMutability": "payable",
      "type": "function",
      "payable": true
    }
  ],
  "bytecode": "0x60806040526040518060400160405280600581526020017f2e6a736f6e000000000000000000000000000000000000000000000000000000815250600c908051906020019062000051929190620003a1565b5066f8b0a10e470000600d55612710600e556002600f556000601060006101000a81548160ff0219169083151502179055506000601060016101000a81548160ff021916908315150217905550348015620000ab57600080fd5b5060405162004c6e38038062004c6e8339818101604052810190620000d19190620005ee565b83838160009080519060200190620000eb929190620003a1565b50806001908051906020019062000104929190620003a1565b505050620001276200011b6200015360201b60201c565b6200015b60201b60201c565b62000138826200022160201b60201c565b6200014981620002cc60201b60201c565b50505050620007c4565b600033905090565b6000600a60009054906101000a900473ffffffffffffffffffffffffffffffffffffffff16905081600a60006101000a81548173ffffffffffffffffffffffffffffffffffffffff021916908373ffffffffffffffffffffffffffffffffffffffff1602179055508173ffffffffffffffffffffffffffffffffffffffff168173ffffffffffffffffffffffffffffffffffffffff167f8be0079c531659141344cd1fd0a4f28419497f9722a3daafe3b4186f6b6457e060405160405180910390a35050565b620002316200015360201b60201c565b73ffffffffffffffffffffffffffffffffffffffff16620002576200037760201b60201c565b73ffffffffffffffffffffffffffffffffffffffff1614620002b0576040517f08c379a0000000000000000000000000000000000000000000000000000000008152600401620002a7906200073d565b60405180910390fd5b80600b9080519060200190620002c8929190620003a1565b5050565b620002dc6200015360201b60201c565b73ffffffffffffffffffffffffffffffffffffffff16620003026200037760201b60201c565b73ffffffffffffffffffffffffffffffffffffffff16146200035b576040517f08c379a000000000000000000000000000000000000000000000000000000000815260040162000352906200073d565b60405180910390fd5b806011908051906020019062000373929190620003a1565b5050565b6000600a60009054906101000a900473ffffffffffffffffffffffffffffffffffffffff16905090565b828054620003af906200078e565b90600052602060002090601f016020900481019282620003d357600085556200041f565b82601f10620003ee57805160ff19168380011785556200041f565b828001600101855582156200041f579182015b828111156200041e57825182559160200191906001019062000401565b5b5090506200042e919062000432565b5090565b5b808211156200044d57600081600090555060010162000433565b5090565b6000604051905090565b600080fd5b600080fd5b600080fd5b600080fd5b6000601f19601f8301169050919050565b7f4e487b7100000000000000000000000000000000000000000000000000000000600052604160045260246000fd5b620004ba826200046f565b810181811067ffffffffffffffff82111715620004dc57620004db62000480565b5b80604052505050565b6000620004f162000451565b9050620004ff8282620004af565b919050565b600067ffffffffffffffff82111562000522576200052162000480565b5b6200052d826200046f565b9050602081019050919050565b60005b838110156200055a5780820151818401526020810190506200053d565b838111156200056a576000848401525b50505050565b600062000587620005818462000504565b620004e5565b905082815260208101848484011115620005a657620005a56200046a565b5b620005b38482856200053a565b509392505050565b600082601f830112620005d357620005d262000465565b5b8151620005e584826020860162000570565b91505092915050565b600080600080608085870312156200060b576200060a6200045b565b5b600085015167ffffffffffffffff8111156200062c576200062b62000460565b5b6200063a87828801620005bb565b945050602085015167ffffffffffffffff8111156200065e576200065d62000460565b5b6200066c87828801620005bb565b935050604085015167ffffffffffffffff81111562000690576200068f62000460565b5b6200069e87828801620005bb565b925050606085015167ffffffffffffffff811115620006c257620006c162000460565b5b620006d087828801620005bb565b91505092959194509250565b600082825260208201905092915050565b7f4f776e61626c653a2063616c6c6572206973206e6f7420746865206f776e6572600082015250565b600062000725602083620006dc565b91506200073282620006ed565b602082019050919050565b60006020820190508181036000830152620007588162000716565b9050919050565b7f4e487b7100000000000000000000000000000000000000000000000000000000600052602260045260246000fd5b60006002820490506001821680620007a757607f821691505b60208210811415620007be57620007bd6200075f565b5b50919050565b61449a80620007d46000396000f3fe60806040526004361061020f5760003560e01c80635c975abb11610118578063a475b5dd116100a0578063d5abeb011161006f578063d5abeb011461076f578063da3ef23f1461079a578063e985e9c5146107c3578063f2c4ce1e14610800578063f2fde38b146108295761020f565b8063a475b5dd146106c7578063b88d4fde146106de578063c668286214610707578063c87b56dd146107325761020f565b806372250380116100e757806372250380146106015780638da5cb5b1461062c57806395d89b4114610657578063a0712d6814610682578063a22cb4651461069e5761020f565b80635c975abb146105455780636352211e1461057057806370a08231146105ad578063715018a6146105ea5761020f565b806323b872dd1161019b578063438b63001161016a578063438b63001461044e57806344a0d68a1461048b5780634f6ccce7146104b457806351830227146104f157806355f804b31461051c5761020f565b806323b872dd146103b55780632f745c59146103de5780633ccfd60b1461041b57806342842e0e146104255761020f565b8063088a4ed0116101e2578063088a4ed0146102e2578063095ea7b31461030b57806313faede61461033457806318160ddd1461035f578063239c70ae1461038a5761020f565b806301ffc9a71461021457806302329a291461025157806306fdde031461027a578063081812fc146102a5575b600080fd5b34801561022057600080fd5b5061023b60048036038101906102369190612e28565b610852565b6040516102489190612e70565b60405180910390f35b34801561025d57600080fd5b5061027860048036038101906102739190612eb7565b6108cc565b005b34801561028657600080fd5b5061028f610965565b60405161029c9190612f7d565b60405180910390f35b3480156102b157600080fd5b506102cc60048036038101906102c79190612fd5565b6109f7565b6040516102d99190613043565b60405180910390f35b3480156102ee57600080fd5b5061030960048036038101906103049190612fd5565b610a7c565b005b34801561031757600080fd5b50610332600480360381019061032d919061308a565b610b02565b005b34801561034057600080fd5b50610349610c1a565b60405161035691906130d9565b60405180910390f35b34801561036b57600080fd5b50610374610c20565b60405161038191906130d9565b60405180910390f35b34801561039657600080fd5b5061039f610c2d565b6040516103ac91906130d9565b60405180910390f35b3480156103c157600080fd5b506103dc60048036038101906103d791906130f4565b610c33565b005b3480156103ea57600080fd5b506104056004803603810190610400919061308a565b610c93565b60405161041291906130d9565b60405180910390f35b610423610d38565b005b34801561043157600080fd5b5061044c600480360381019061044791906130f4565b610e34565b005b34801561045a57600080fd5b5061047560048036038101906104709190613147565b610e54565b6040516104829190613232565b60405180910390f35b34801561049757600080fd5b506104b260048036038101906104ad9190612fd5565b610f45565b005b3480156104c057600080fd5b506104db60048036038101906104d69190612fd5565b610fcb565b6040516104e891906130d9565b60405180910390f35b3480156104fd57600080fd5b5061050661103c565b6040516105139190612e70565b60405180910390f35b34801561052857600080fd5b50610543600480360381019061053e9190613389565b61104f565b005b34801561055157600080fd5b5061055a6110e5565b6040516105679190612e70565b60405180910390f35b34801561057c57600080fd5b5061059760048036038101906105929190612fd5565b6110f8565b6040516105a49190613043565b60405180910390f35b3480156105b957600080fd5b506105d460048036038101906105cf9190613147565b6111aa565b6040516105e191906130d9565b60405180910390f35b3480156105f657600080fd5b506105ff611262565b005b34801561060d57600080fd5b506106166112ea565b6040516106239190612f7d565b60405180910390f35b34801561063857600080fd5b50610641611378565b60405161064e9190613043565b60405180910390f35b34801561066357600080fd5b5061066c6113a2565b6040516106799190612f7d565b60405180910390f35b61069c60048036038101906106979190612fd5565b611434565b005b3480156106aa57600080fd5b506106c560048036038101906106c091906133d2565b611520565b005b3480156106d357600080fd5b506106dc6116a1565b005b3480156106ea57600080fd5b50610705600480360381019061070091906134b3565b61173a565b005b34801561071357600080fd5b5061071c61179c565b6040516107299190612f7d565b60405180910390f35b34801561073e57600080fd5b5061075960048036038101906107549190612fd5565b61182a565b6040516107669190612f7d565b60405180910390f35b34801561077b57600080fd5b50610784611983565b60405161079191906130d9565b60405180910390f35b3480156107a657600080fd5b506107c160048036038101906107bc9190613389565b611989565b005b3480156107cf57600080fd5b506107ea60048036038101906107e59190613536565b611a1f565b6040516107f79190612e70565b60405180910390f35b34801561080c57600080fd5b5061082760048036038101906108229190613389565b611ab3565b005b34801561083557600080fd5b50610850600480360381019061084b9190613147565b611b49565b005b60007f780e9d63000000000000000000000000000000000000000000000000000000007bffffffffffffffffffffffffffffffffffffffffffffffffffffffff1916827bffffffffffffffffffffffffffffffffffffffffffffffffffffffff191614806108c557506108c482611c41565b5b9050919050565b6108d4611d23565b73ffffffffffffffffffffffffffffffffffffffff166108f2611378565b73ffffffffffffffffffffffffffffffffffffffff1614610948576040517f08c379a000000000000000000000000000000000000000000000000000000000815260040161093f906135c2565b60405180910390fd5b80601060006101000a81548160ff02191690831515021790555050565b60606000805461097490613611565b80601f01602080910402602001604051908101604052809291908181526020018280546109a090613611565b80156109ed5780601f106109c2576101008083540402835291602001916109ed565b820191906000526020600020905b8154815290600101906020018083116109d057829003601f168201915b5050505050905090565b6000610a0282611d2b565b610a41576040517f08c379a0000000000000000000000000000000000000000000000000000000008152600401610a38906136b5565b60405180910390fd5b6004600083815260200190815260200160002060009054906101000a900473ffffffffffffffffffffffffffffffffffffffff169050919050565b610a84611d23565b73ffffffffffffffffffffffffffffffffffffffff16610aa2611378565b73ffffffffffffffffffffffffffffffffffffffff1614610af8576040517f08c379a0000000000000000000000000000000000000000000000000000000008152600401610aef906135c2565b60405180910390fd5b80600f8190555050565b6000610b0d826110f8565b90508073ffffffffffffffffffffffffffffffffffffffff168373ffffffffffffffffffffffffffffffffffffffff161415610b7e576040517f08c379a0000000000000000000000000000000000000000000000000000000008152600401610b7590613747565b60405180910390fd5b8073ffffffffffffffffffffffffffffffffffffffff16610b9d611d23565b73ffffffffffffffffffffffffffffffffffffffff161480610bcc5750610bcb81610bc6611d23565b611a1f565b5b610c0b576040517f08c379a0000000000000000000000000000000000000000000000000000000008152600401610c02906137d9565b60405180910390fd5b610c158383611d97565b505050565b600d5481565b6000600880549050905090565b600f5481565b610c44610c3e611d23565b82611e50565b610c83576040517f08c379a0000000000000000000000000000000000000000000000000000000008152600401610c7a9061386b565b60405180910390fd5b610c8e838383611f2e565b505050565b6000610c9e836111aa565b8210610cdf576040517f08c379a0000000000000000000000000000000000000000000000000000000008152600401610cd6906138fd565b60405180910390fd5b600660008473ffffffffffffffffffffffffffffffffffffffff1673ffffffffffffffffffffffffffffffffffffffff168152602001908152602001600020600083815260200190815260200160002054905092915050565b610d40611d23565b73ffffffffffffffffffffffffffffffffffffffff16610d5e611378565b73ffffffffffffffffffffffffffffffffffffffff1614610db4576040517f08c379a0000000000000000000000000000000000000000000000000000000008152600401610dab906135c2565b60405180910390fd5b6000610dbe611378565b73ffffffffffffffffffffffffffffffffffffffff1647604051610de19061394e565b60006040518083038185875af1925050503d8060008114610e1e576040519150601f19603f3d011682016040523d82523d6000602084013e610e23565b606091505b5050905080610e3157600080fd5b50565b610e4f8383836040518060200160405280600081525061173a565b505050565b60606000610e61836111aa565b905060008111610ea6576040517f08c379a0000000000000000000000000000000000000000000000000000000008152600401610e9d906139af565b60405180910390fd5b60008167ffffffffffffffff811115610ec257610ec161325e565b5b604051908082528060200260200182016040528015610ef05781602001602082028036833780820191505090505b50905060005b82811015610f3a57610f088582610c93565b828281518110610f1b57610f1a6139cf565b5b6020026020010181815250508080610f3290613a2d565b915050610ef6565b508092505050919050565b610f4d611d23565b73ffffffffffffffffffffffffffffffffffffffff16610f6b611378565b73ffffffffffffffffffffffffffffffffffffffff1614610fc1576040517f08c379a0000000000000000000000000000000000000000000000000000000008152600401610fb8906135c2565b60405180910390fd5b80600d8190555050565b6000610fd5610c20565b8210611016576040517f08c379a000000000000000000000000000000000000000000000000000000000815260040161100d90613ae8565b60405180910390fd5b6008828154811061102a576110296139cf565b5b90600052602060002001549050919050565b601060019054906101000a900460ff1681565b611057611d23565b73ffffffffffffffffffffffffffffffffffffffff16611075611378565b73ffffffffffffffffffffffffffffffffffffffff16146110cb576040517f08c379a00000000000000000000000000000000000000000000000000000000081526004016110c2906135c2565b60405180910390fd5b80600b90805190602001906110e1929190612d19565b5050565b601060009054906101000a900460ff1681565b6000806002600084815260200190815260200160002060009054906101000a900473ffffffffffffffffffffffffffffffffffffffff169050600073ffffffffffffffffffffffffffffffffffffffff168173ffffffffffffffffffffffffffffffffffffffff1614156111a1576040517f08c379a000000000000000000000000000000000000000000000000000000000815260040161119890613b7a565b60405180910390fd5b80915050919050565b60008073ffffffffffffffffffffffffffffffffffffffff168273ffffffffffffffffffffffffffffffffffffffff16141561121b576040517f08c379a000000000000000000000000000000000000000000000000000000000815260040161121290613c0c565b60405180910390fd5b600360008373ffffffffffffffffffffffffffffffffffffffff1673ffffffffffffffffffffffffffffffffffffffff168152602001908152602001600020549050919050565b61126a611d23565b73ffffffffffffffffffffffffffffffffffffffff16611288611378565b73ffffffffffffffffffffffffffffffffffffffff16146112de576040517f08c379a00000000000000000000000000000000000000000000000000000000081526004016112d5906135c2565b60405180910390fd5b6112e8600061218a565b565b601180546112f790613611565b80601f016020809104026020016040519081016040528092919081815260200182805461132390613611565b80156113705780601f1061134557610100808354040283529160200191611370565b820191906000526020600020905b81548152906001019060200180831161135357829003601f168201915b505050505081565b6000600a60009054906101000a900473ffffffffffffffffffffffffffffffffffffffff16905090565b6060600180546113b190613611565b80601f01602080910402602001604051908101604052809291908181526020018280546113dd90613611565b801561142a5780601f106113ff5761010080835404028352916020019161142a565b820191906000526020600020905b81548152906001019060200180831161140d57829003601f168201915b5050505050905090565b600061143e610c20565b9050601060009054906101000a900460ff161561145a57600080fd5b6000821161146757600080fd5b600f5482111561147657600080fd5b600e5482826114859190613c2c565b111561149057600080fd5b611498611378565b73ffffffffffffffffffffffffffffffffffffffff163373ffffffffffffffffffffffffffffffffffffffff16146114e55781600d546114d89190613c82565b3410156114e457600080fd5b5b6000600190505b82811161151b576115083382846115039190613c2c565b612250565b808061151390613a2d565b9150506114ec565b505050565b611528611d23565b73ffffffffffffffffffffffffffffffffffffffff168273ffffffffffffffffffffffffffffffffffffffff161415611596576040517f08c379a000000000000000000000000000000000000000000000000000000000815260040161158d90613d28565b60405180910390fd5b80600560006115a3611d23565b73ffffffffffffffffffffffffffffffffffffffff1673ffffffffffffffffffffffffffffffffffffffff16815260200190815260200160002060008473ffffffffffffffffffffffffffffffffffffffff1673ffffffffffffffffffffffffffffffffffffffff16815260200190815260200160002060006101000a81548160ff0219169083151502179055508173ffffffffffffffffffffffffffffffffffffffff16611650611d23565b73ffffffffffffffffffffffffffffffffffffffff167f17307eab39ab6107e8899845ad3d59bd9653f200f220920489ca2b5937696c31836040516116959190612e70565b60405180910390a35050565b6116a9611d23565b73ffffffffffffffffffffffffffffffffffffffff166116c7611378565b73ffffffffffffffffffffffffffffffffffffffff161461171d576040517f08c379a0000000000000000000000000000000000000000000000000000000008152600401611714906135c2565b60405180910390fd5b6001601060016101000a81548160ff021916908315150217905550565b61174b611745611d23565b83611e50565b61178a576040517f08c379a00000000000000000000000000000000000000000000000000000000081526004016117819061386b565b60405180910390fd5b6117968484848461226e565b50505050565b600c80546117a990613611565b80601f01602080910402602001604051908101604052809291908181526020018280546117d590613611565b80156118225780601f106117f757610100808354040283529160200191611822565b820191906000526020600020905b81548152906001019060200180831161180557829003601f168201915b505050505081565b606061183582611d2b565b611874576040517f08c379a000000000000000000000000000000000000000000000000000000000815260040161186b90613dba565b60405180910390fd5b60001515601060019054906101000a900460ff1615151415611922576011805461189d90613611565b80601f01602080910402602001604051908101604052809291908181526020018280546118c990613611565b80156119165780601f106118eb57610100808354040283529160200191611916565b820191906000526020600020905b8154815290600101906020018083116118f957829003601f168201915b5050505050905061197e565b600061192c6122ca565b9050600081511161194c576040518060200160405280600081525061197a565b806119568461235c565b600c60405160200161196a93929190613eaa565b6040516020818303038152906040525b9150505b919050565b600e5481565b611991611d23565b73ffffffffffffffffffffffffffffffffffffffff166119af611378565b73ffffffffffffffffffffffffffffffffffffffff1614611a05576040517f08c379a00000000000000000000000000000000000000000000000000000000081526004016119fc906135c2565b60405180910390fd5b80600c9080519060200190611a1b929190612d19565b5050565b6000600560008473ffffffffffffffffffffffffffffffffffffffff1673ffffffffffffffffffffffffffffffffffffffff16815260200190815260200160002060008373ffffffffffffffffffffffffffffffffffffffff1673ffffffffffffffffffffffffffffffffffffffff16815260200190815260200160002060009054906101000a900460ff16905092915050565b611abb611d23565b73ffffffffffffffffffffffffffffffffffffffff16611ad9611378565b73ffffffffffffffffffffffffffffffffffffffff1614611b2f576040517f08c379a0000000000000000000000000000000000000000000000000000000008152600401611b26906135c2565b60405180910390fd5b8060119080519060200190611b45929190612d19565b5050565b611b51611d23565b73ffffffffffffffffffffffffffffffffffffffff16611b6f611378565b73ffffffffffffffffffffffffffffffffffffffff1614611bc5576040517f08c379a0000000000000000000000000000000000000000000000000000000008152600401611bbc906135c2565b60405180910390fd5b600073ffffffffffffffffffffffffffffffffffffffff168173ffffffffffffffffffffffffffffffffffffffff161415611c35576040517f08c379a0000000000000000000000000000000000000000000000000000000008152600401611c2c90613f4d565b60405180910390fd5b611c3e8161218a565b50565b60007f80ac58cd000000000000000000000000000000000000000000000000000000007bffffffffffffffffffffffffffffffffffffffffffffffffffffffff1916827bffffffffffffffffffffffffffffffffffffffffffffffffffffffff19161480611d0c57507f5b5e139f000000000000000000000000000000000000000000000000000000007bffffffffffffffffffffffffffffffffffffffffffffffffffffffff1916827bffffffffffffffffffffffffffffffffffffffffffffffffffffffff1916145b80611d1c5750611d1b826124bd565b5b9050919050565b600033905090565b60008073ffffffffffffffffffffffffffffffffffffffff166002600084815260200190815260200160002060009054906101000a900473ffffffffffffffffffffffffffffffffffffffff1673ffffffffffffffffffffffffffffffffffffffff1614159050919050565b816004600083815260200190815260200160002060006101000a81548173ffffffffffffffffffffffffffffffffffffffff021916908373ffffffffffffffffffffffffffffffffffffffff160217905550808273ffffffffffffffffffffffffffffffffffffffff16611e0a836110f8565b73ffffffffffffffffffffffffffffffffffffffff167f8c5be1e5ebec7d5bd14f71427d1e84f3dd0314c0f7b2291e5b200ac8c7c3b92560405160405180910390a45050565b6000611e5b82611d2b565b611e9a576040517f08c379a0000000000000000000000000000000000000000000000000000000008152600401611e9190613fdf565b60405180910390fd5b6000611ea5836110f8565b90508073ffffffffffffffffffffffffffffffffffffffff168473ffffffffffffffffffffffffffffffffffffffff161480611f1457508373ffffffffffffffffffffffffffffffffffffffff16611efc846109f7565b73ffffffffffffffffffffffffffffffffffffffff16145b80611f255750611f248185611a1f565b5b91505092915050565b8273ffffffffffffffffffffffffffffffffffffffff16611f4e826110f8565b73ffffffffffffffffffffffffffffffffffffffff1614611fa4576040517f08c379a0000000000000000000000000000000000000000000000000000000008152600401611f9b90614071565b60405180910390fd5b600073ffffffffffffffffffffffffffffffffffffffff168273ffffffffffffffffffffffffffffffffffffffff161415612014576040517f08c379a000000000000000000000000000000000000000000000000000000000815260040161200b90614103565b60405180910390fd5b61201f838383612527565b61202a600082611d97565b6001600360008573ffffffffffffffffffffffffffffffffffffffff1673ffffffffffffffffffffffffffffffffffffffff168152602001908152602001600020600082825461207a9190614123565b925050819055506001600360008473ffffffffffffffffffffffffffffffffffffffff1673ffffffffffffffffffffffffffffffffffffffff16815260200190815260200160002060008282546120d19190613c2c565b92505081905550816002600083815260200190815260200160002060006101000a81548173ffffffffffffffffffffffffffffffffffffffff021916908373ffffffffffffffffffffffffffffffffffffffff160217905550808273ffffffffffffffffffffffffffffffffffffffff168473ffffffffffffffffffffffffffffffffffffffff167fddf252ad1be2c89b69c2b068fc378daa952ba7f163c4a11628f55a4df523b3ef60405160405180910390a4505050565b6000600a60009054906101000a900473ffffffffffffffffffffffffffffffffffffffff16905081600a60006101000a81548173ffffffffffffffffffffffffffffffffffffffff021916908373ffffffffffffffffffffffffffffffffffffffff1602179055508173ffffffffffffffffffffffffffffffffffffffff168173ffffffffffffffffffffffffffffffffffffffff167f8be0079c531659141344cd1fd0a4f28419497f9722a3daafe3b4186f6b6457e060405160405180910390a35050565b61226a82826040518060200160405280600081525061263b565b5050565b612279848484611f2e565b61228584848484612696565b6122c4576040517f08c379a00000000000000000000000000000000000000000000000000000000081526004016122bb906141c9565b60405180910390fd5b50505050565b6060600b80546122d990613611565b80601f016020809104026020016040519081016040528092919081815260200182805461230590613611565b80156123525780601f1061232757610100808354040283529160200191612352565b820191906000526020600020905b81548152906001019060200180831161233557829003601f168201915b5050505050905090565b606060008214156123a4576040518060400160405280600181526020017f300000000000000000000000000000000000000000000000000000000000000081525090506124b8565b600082905060005b600082146123d65780806123bf90613a2d565b915050600a826123cf9190614218565b91506123ac565b60008167ffffffffffffffff8111156123f2576123f161325e565b5b6040519080825280601f01601f1916602001820160405280156124245781602001600182028036833780820191505090505b5090505b600085146124b15760018261243d9190614123565b9150600a8561244c9190614249565b60306124589190613c2c565b60f81b81838151811061246e5761246d6139cf565b5b60200101907effffffffffffffffffffffffffffffffffffffffffffffffffffffffffffff1916908160001a905350600a856124aa9190614218565b9450612428565b8093505050505b919050565b60007f01ffc9a7000000000000000000000000000000000000000000000000000000007bffffffffffffffffffffffffffffffffffffffffffffffffffffffff1916827bffffffffffffffffffffffffffffffffffffffffffffffffffffffff1916149050919050565b61253283838361282d565b600073ffffffffffffffffffffffffffffffffffffffff168373ffffffffffffffffffffffffffffffffffffffff1614156125755761257081612832565b6125b4565b8173ffffffffffffffffffffffffffffffffffffffff168373ffffffffffffffffffffffffffffffffffffffff16146125b3576125b2838261287b565b5b5b600073ffffffffffffffffffffffffffffffffffffffff168273ffffffffffffffffffffffffffffffffffffffff1614156125f7576125f2816129e8565b612636565b8273ffffffffffffffffffffffffffffffffffffffff168273ffffffffffffffffffffffffffffffffffffffff1614612635576126348282612ab9565b5b5b505050565b6126458383612b38565b6126526000848484612696565b612691576040517f08c379a0000000000000000000000000000000000000000000000000000000008152600401612688906141c9565b60405180910390fd5b505050565b60006126b78473ffffffffffffffffffffffffffffffffffffffff16612d06565b15612820578373ffffffffffffffffffffffffffffffffffffffff1663150b7a026126e0611d23565b8786866040518563ffffffff1660e01b815260040161270294939291906142cf565b602060405180830381600087803b15801561271c57600080fd5b505af192505050801561274d57506040513d601f19601f8201168201806040525081019061274a9190614330565b60015b6127d0573d806000811461277d576040519150601f19603f3d011682016040523d82523d6000602084013e612782565b606091505b506000815114156127c8576040517f08c379a00000000000000000000000000000000000000000000000000000000081526004016127bf906141c9565b60405180910390fd5b805181602001fd5b63150b7a0260e01b7bffffffffffffffffffffffffffffffffffffffffffffffffffffffff1916817bffffffffffffffffffffffffffffffffffffffffffffffffffffffff191614915050612825565b600190505b949350505050565b505050565b6008805490506009600083815260200190815260200160002081905550600881908060018154018082558091505060019003906000526020600020016000909190919091505550565b60006001612888846111aa565b6128929190614123565b9050600060076000848152602001908152602001600020549050818114612977576000600660008673ffffffffffffffffffffffffffffffffffffffff1673ffffffffffffffffffffffffffffffffffffffff168152602001908152602001600020600084815260200190815260200160002054905080600660008773ffffffffffffffffffffffffffffffffffffffff1673ffffffffffffffffffffffffffffffffffffffff168152602001908152602001600020600084815260200190815260200160002081905550816007600083815260200190815260200160002081905550505b6007600084815260200190815260200160002060009055600660008573ffffffffffffffffffffffffffffffffffffffff1673ffffffffffffffffffffffffffffffffffffffff16815260200190815260200160002060008381526020019081526020016000206000905550505050565b600060016008805490506129fc9190614123565b9050600060096000848152602001908152602001600020549050600060088381548110612a2c57612a2b6139cf565b5b906000526020600020015490508060088381548110612a4e57612a4d6139cf565b5b906000526020600020018190555081600960008381526020019081526020016000208190555060096000858152602001908152602001600020600090556008805480612a9d57612a9c61435d565b5b6001900381819060005260206000200160009055905550505050565b6000612ac4836111aa565b905081600660008573ffffffffffffffffffffffffffffffffffffffff1673ffffffffffffffffffffffffffffffffffffffff168152602001908152602001600020600083815260200190815260200160002081905550806007600084815260200190815260200160002081905550505050565b600073ffffffffffffffffffffffffffffffffffffffff168273ffffffffffffffffffffffffffffffffffffffff161415612ba8576040517f08c379a0000000000000000000000000000000000000000000000000000000008152600401612b9f906143d8565b60405180910390fd5b612bb181611d2b565b15612bf1576040517f08c379a0000000000000000000000000000000000000000000000000000000008152600401612be890614444565b60405180910390fd5b612bfd60008383612527565b6001600360008473ffffffffffffffffffffffffffffffffffffffff1673ffffffffffffffffffffffffffffffffffffffff1681526020019081526020016000206000828254612c4d9190613c2c565b92505081905550816002600083815260200190815260200160002060006101000a81548173ffffffffffffffffffffffffffffffffffffffff021916908373ffffffffffffffffffffffffffffffffffffffff160217905550808273ffffffffffffffffffffffffffffffffffffffff16600073ffffffffffffffffffffffffffffffffffffffff167fddf252ad1be2c89b69c2b068fc378daa952ba7f163c4a11628f55a4df523b3ef60405160405180910390a45050565b600080823b905060008111915050919050565b828054612d2590613611565b90600052602060002090601f016020900481019282612d475760008555612d8e565b82601f10612d6057805160ff1916838001178555612d8e565b82800160010185558215612d8e579182015b82811115612d8d578251825591602001919060010190612d72565b5b509050612d9b9190612d9f565b5090565b5b80821115612db8576000816000905550600101612da0565b5090565b6000604051905090565b600080fd5b600080fd5b60007fffffffff0000000000000000000000000000000000000000000000000000000082169050919050565b612e0581612dd0565b8114612e1057600080fd5b50565b600081359050612e2281612dfc565b92915050565b600060208284031215612e3e57612e3d612dc6565b5b6000612e4c84828501612e13565b91505092915050565b60008115159050919050565b612e6a81612e55565b82525050565b6000602082019050612e856000830184612e61565b92915050565b612e9481612e55565b8114612e9f57600080fd5b50565b600081359050612eb181612e8b565b92915050565b600060208284031215612ecd57612ecc612dc6565b5b6000612edb84828501612ea2565b91505092915050565b600081519050919050565b600082825260208201905092915050565b60005b83811015612f1e578082015181840152602081019050612f03565b83811115612f2d576000848401525b50505050565b6000601f19601f8301169050919050565b6000612f4f82612ee4565b612f598185612eef565b9350612f69818560208601612f00565b612f7281612f33565b840191505092915050565b60006020820190508181036000830152612f978184612f44565b905092915050565b6000819050919050565b612fb281612f9f565b8114612fbd57600080fd5b50565b600081359050612fcf81612fa9565b92915050565b600060208284031215612feb57612fea612dc6565b5b6000612ff984828501612fc0565b91505092915050565b600073ffffffffffffffffffffffffffffffffffffffff82169050919050565b600061302d82613002565b9050919050565b61303d81613022565b82525050565b60006020820190506130586000830184613034565b92915050565b61306781613022565b811461307257600080fd5b50565b6000813590506130848161305e565b92915050565b600080604083850312156130a1576130a0612dc6565b5b60006130af85828601613075565b92505060206130c085828601612fc0565b9150509250929050565b6130d381612f9f565b82525050565b60006020820190506130ee60008301846130ca565b92915050565b60008060006060848603121561310d5761310c612dc6565b5b600061311b86828701613075565b935050602061312c86828701613075565b925050604061313d86828701612fc0565b9150509250925092565b60006020828403121561315d5761315c612dc6565b5b600061316b84828501613075565b91505092915050565b600081519050919050565b600082825260208201905092915050565b6000819050602082019050919050565b6131a981612f9f565b82525050565b60006131bb83836131a0565b60208301905092915050565b6000602082019050919050565b60006131df82613174565b6131e9818561317f565b93506131f483613190565b8060005b8381101561322557815161320c88826131af565b9750613217836131c7565b9250506001810190506131f8565b5085935050505092915050565b6000602082019050818103600083015261324c81846131d4565b905092915050565b600080fd5b600080fd5b7f4e487b7100000000000000000000000000000000000000000000000000000000600052604160045260246000fd5b61329682612f33565b810181811067ffffffffffffffff821117156132b5576132b461325e565b5b80604052505050565b60006132c8612dbc565b90506132d4828261328d565b919050565b600067ffffffffffffffff8211156132f4576132f361325e565b5b6132fd82612f33565b9050602081019050919050565b82818337600083830152505050565b600061332c613327846132d9565b6132be565b90508281526020810184848401111561334857613347613259565b5b61335384828561330a565b509392505050565b600082601f8301126133705761336f613254565b5b8135613380848260208601613319565b91505092915050565b60006020828403121561339f5761339e612dc6565b5b600082013567ffffffffffffffff8111156133bd576133bc612dcb565b5b6133c98482850161335b565b91505092915050565b600080604083850312156133e9576133e8612dc6565b5b60006133f785828601613075565b925050602061340885828601612ea2565b9150509250929050565b600067ffffffffffffffff82111561342d5761342c61325e565b5b61343682612f33565b9050602081019050919050565b600061345661345184613412565b6132be565b90508281526020810184848401111561347257613471613259565b5b61347d84828561330a565b509392505050565b600082601f83011261349a57613499613254565b5b81356134aa848260208601613443565b91505092915050565b600080600080608085870312156134cd576134cc612dc6565b5b60006134db87828801613075565b94505060206134ec87828801613075565b93505060406134fd87828801612fc0565b925050606085013567ffffffffffffffff81111561351e5761351d612dcb565b5b61352a87828801613485565b91505092959194509250565b6000806040838503121561354d5761354c612dc6565b5b600061355b85828601613075565b925050602061356c85828601613075565b9150509250929050565b7f4f776e61626c653a2063616c6c6572206973206e6f7420746865206f776e6572600082015250565b60006135ac602083612eef565b91506135b782613576565b602082019050919050565b600060208201905081810360008301526135db8161359f565b9050919050565b7f4e487b7100000000000000000000000000000000000000000000000000000000600052602260045260246000fd5b6000600282049050600182168061362957607f821691505b6020821081141561363d5761363c6135e2565b5b50919050565b7f4552433732313a20617070726f76656420717565727920666f72206e6f6e657860008201527f697374656e7420746f6b656e0000000000000000000000000000000000000000602082015250565b600061369f602c83612eef565b91506136aa82613643565b604082019050919050565b600060208201905081810360008301526136ce81613692565b9050919050565b7f4552433732313a20617070726f76616c20746f2063757272656e74206f776e6560008201527f7200000000000000000000000000000000000000000000000000000000000000602082015250565b6000613731602183612eef565b915061373c826136d5565b604082019050919050565b6000602082019050818103600083015261376081613724565b9050919050565b7f4552433732313a20617070726f76652063616c6c6572206973206e6f74206f7760008201527f6e6572206e6f7220617070726f76656420666f7220616c6c0000000000000000602082015250565b60006137c3603883612eef565b91506137ce82613767565b604082019050919050565b600060208201905081810360008301526137f2816137b6565b9050919050565b7f4552433732313a207472616e736665722063616c6c6572206973206e6f74206f60008201527f776e6572206e6f7220617070726f766564000000000000000000000000000000602082015250565b6000613855603183612eef565b9150613860826137f9565b604082019050919050565b6000602082019050818103600083015261388481613848565b9050919050565b7f455243373231456e756d657261626c653a206f776e657220696e646578206f7560008201527f74206f6620626f756e6473000000000000000000000000000000000000000000602082015250565b60006138e7602b83612eef565b91506138f28261388b565b604082019050919050565b60006020820190508181036000830152613916816138da565b9050919050565b600081905092915050565b50565b600061393860008361391d565b915061394382613928565b600082019050919050565b60006139598261392b565b9150819050919050565b7f4164647265737320686173206e6f6e65206f66206f7572204e46545300000000600082015250565b6000613999601c83612eef565b91506139a482613963565b602082019050919050565b600060208201905081810360008301526139c88161398c565b9050919050565b7f4e487b7100000000000000000000000000000000000000000000000000000000600052603260045260246000fd5b7f4e487b7100000000000000000000000000000000000000000000000000000000600052601160045260246000fd5b6000613a3882612f9f565b91507fffffffffffffffffffffffffffffffffffffffffffffffffffffffffffffffff821415613a6b57613a6a6139fe565b5b600182019050919050565b7f455243373231456e756d657261626c653a20676c6f62616c20696e646578206f60008201527f7574206f6620626f756e64730000000000000000000000000000000000000000602082015250565b6000613ad2602c83612eef565b9150613add82613a76565b604082019050919050565b60006020820190508181036000830152613b0181613ac5565b9050919050565b7f4552433732313a206f776e657220717565727920666f72206e6f6e657869737460008201527f656e7420746f6b656e0000000000000000000000000000000000000000000000602082015250565b6000613b64602983612eef565b9150613b6f82613b08565b604082019050919050565b60006020820190508181036000830152613b9381613b57565b9050919050565b7f4552433732313a2062616c616e636520717565727920666f7220746865207a6560008201527f726f206164647265737300000000000000000000000000000000000000000000602082015250565b6000613bf6602a83612eef565b9150613c0182613b9a565b604082019050919050565b60006020820190508181036000830152613c2581613be9565b9050919050565b6000613c3782612f9f565b9150613c4283612f9f565b9250827fffffffffffffffffffffffffffffffffffffffffffffffffffffffffffffffff03821115613c7757613c766139fe565b5b828201905092915050565b6000613c8d82612f9f565b9150613c9883612f9f565b9250817fffffffffffffffffffffffffffffffffffffffffffffffffffffffffffffffff0483118215151615613cd157613cd06139fe565b5b828202905092915050565b7f4552433732313a20617070726f766520746f2063616c6c657200000000000000600082015250565b6000613d12601983612eef565b9150613d1d82613cdc565b602082019050919050565b60006020820190508181036000830152613d4181613d05565b9050919050565b7f4552433732314d657461646174613a2055524920717565727920666f72206e6f60008201527f6e6578697374616e7420746f6b656e0000000000000000000000000000000000602082015250565b6000613da4602f83612eef565b9150613daf82613d48565b604082019050919050565b60006020820190508181036000830152613dd381613d97565b9050919050565b600081905092915050565b6000613df082612ee4565b613dfa8185613dda565b9350613e0a818560208601612f00565b80840191505092915050565b60008190508160005260206000209050919050565b60008154613e3881613611565b613e428186613dda565b94506001821660008114613e5d5760018114613e6e57613ea1565b60ff19831686528186019350613ea1565b613e7785613e16565b60005b83811015613e9957815481890152600182019150602081019050613e7a565b838801955050505b50505092915050565b6000613eb68286613de5565b9150613ec28285613de5565b9150613ece8284613e2b565b9150819050949350505050565b7f4f776e61626c653a206e6577206f776e657220697320746865207a65726f206160008201527f6464726573730000000000000000000000000000000000000000000000000000602082015250565b6000613f37602683612eef565b9150613f4282613edb565b604082019050919050565b60006020820190508181036000830152613f6681613f2a565b9050919050565b7f4552433732313a206f70657261746f7220717565727920666f72206e6f6e657860008201527f697374656e7420746f6b656e0000000000000000000000000000000000000000602082015250565b6000613fc9602c83612eef565b9150613fd482613f6d565b604082019050919050565b60006020820190508181036000830152613ff881613fbc565b9050919050565b7f4552433732313a207472616e73666572206f6620746f6b656e2074686174206960008201527f73206e6f74206f776e0000000000000000000000000000000000000000000000602082015250565b600061405b602983612eef565b915061406682613fff565b604082019050919050565b6000602082019050818103600083015261408a8161404e565b9050919050565b7f4552433732313a207472616e7366657220746f20746865207a65726f2061646460008201527f7265737300000000000000000000000000000000000000000000000000000000602082015250565b60006140ed602483612eef565b91506140f882614091565b604082019050919050565b6000602082019050818103600083015261411c816140e0565b9050919050565b600061412e82612f9f565b915061413983612f9f565b92508282101561414c5761414b6139fe565b5b828203905092915050565b7f4552433732313a207472616e7366657220746f206e6f6e20455243373231526560008201527f63656976657220696d706c656d656e7465720000000000000000000000000000602082015250565b60006141b3603283612eef565b91506141be82614157565b604082019050919050565b600060208201905081810360008301526141e2816141a6565b9050919050565b7f4e487b7100000000000000000000000000000000000000000000000000000000600052601260045260246000fd5b600061422382612f9f565b915061422e83612f9f565b92508261423e5761423d6141e9565b5b828204905092915050565b600061425482612f9f565b915061425f83612f9f565b92508261426f5761426e6141e9565b5b828206905092915050565b600081519050919050565b600082825260208201905092915050565b60006142a18261427a565b6142ab8185614285565b93506142bb818560208601612f00565b6142c481612f33565b840191505092915050565b60006080820190506142e46000830187613034565b6142f16020830186613034565b6142fe60408301856130ca565b81810360608301526143108184614296565b905095945050505050565b60008151905061432a81612dfc565b92915050565b60006020828403121561434657614345612dc6565b5b60006143548482850161431b565b91505092915050565b7f4e487b7100000000000000000000000000000000000000000000000000000000600052603160045260246000fd5b7f4552433732313a206d696e7420746f20746865207a65726f2061646472657373600082015250565b60006143c2602083612eef565b91506143cd8261438c565b602082019050919050565b600060208201905081810360008301526143f1816143b5565b9050919050565b7f4552433732313a20746f6b656e20616c7265616479206d696e74656400000000600082015250565b600061442e601c83612eef565b9150614439826143f8565b602082019050919050565b6000602082019050818103600083015261445d81614421565b905091905056fea264697066735822122060ea1290a3f748106a4bc0f709cab2705335b797f5aba53e2150e4aaca97174e64736f6c63430008090033",
  "immutableReferences": {},
  "source": "//SPDX-License-Identifier: UNLICENSED\r\npragma solidity ^0.8.0;\r\n\r\nimport \"@openzeppelin/contracts/token/ERC721/extensions/ERC721Enumerable.sol\";\r\nimport \"@openzeppelin/contracts/access/Ownable.sol\";\r\n\r\ncontract MorseV2 is ERC721Enumerable, Ownable {\r\n    \r\n    using Strings for uint256;\r\n\r\n    string baseURI;\r\n    string public baseExtension = \".json\";\r\n    uint256 public cost = 0.07 ether;\r\n    uint256 public maxSupply = 10000;\r\n    uint256 public maxMintAmount = 2;\r\n    bool public paused = false;\r\n    bool public revealed = false;\r\n    string public notRevealedURI;\r\n\r\n    constructor(\r\n        string memory _name,\r\n        string memory _symbol,\r\n        string memory _initBaseURI,\r\n        string memory _initNotRevealedURI\r\n    ) ERC721(_name, _symbol){\r\n        setBaseURI(_initBaseURI);\r\n        setNotRevealedURI(_initNotRevealedURI);\r\n    }\r\n\r\n    function _baseURI() internal view virtual override returns(string memory){\r\n        return baseURI;\r\n    }\r\n\r\n    function mint(uint256 _mintAmount) public payable{\r\n        uint256 supply = totalSupply();\r\n        require(!paused);\r\n        require(_mintAmount > 0);\r\n        require(_mintAmount <= maxMintAmount);\r\n        require(supply + _mintAmount <= maxSupply);\r\n\r\n        if(msg.sender != owner()){\r\n            require(msg.value >= cost * _mintAmount);\r\n        }\r\n\r\n        for(uint256 i = 1; i <= _mintAmount; i++){\r\n            _safeMint(msg.sender, supply+i);\r\n        }\r\n    }\r\n\r\n    function walletOfOwner(address _owner) public view returns(uint256[] memory){\r\n        uint256 ownerTokenCount = balanceOf(_owner);\r\n        require(ownerTokenCount > 0, \"Address has none of our NFTS\");\r\n        uint256[] memory tokenIds = new uint256[](ownerTokenCount);\r\n        for(uint256 i = 0; i < ownerTokenCount; i++){\r\n            tokenIds[i] = tokenOfOwnerByIndex(_owner, i);\r\n        }\r\n        return tokenIds;\r\n    }\r\n\r\n    function tokenURI(uint256 tokenId) public view virtual override returns (string memory){\r\n        require(_exists(tokenId), \"ERC721Metadata: URI query for nonexistant token\");\r\n        if(revealed == false){\r\n            return notRevealedURI;\r\n        }\r\n\r\n        string memory currentBaseURI = _baseURI();\r\n        return bytes(currentBaseURI).length > 0 ? string(abi.encodePacked(currentBaseURI, tokenId.toString(), baseExtension)) : \"\";\r\n    }\r\n\r\n    function reveal() public onlyOwner {\r\n        revealed = true;\r\n    }\r\n\r\n    function setCost(uint256 _newCost) public onlyOwner {\r\n        cost = _newCost;\r\n    }\r\n\r\n    function setMaxMintAmount(uint256 _newAmount) public onlyOwner {\r\n        maxMintAmount = _newAmount;\r\n    }\r\n\r\n    function setNotRevealedURI(string memory _notRevealedURI) public onlyOwner {\r\n        notRevealedURI = _notRevealedURI;\r\n    }\r\n\r\n    function setBaseURI(string memory _URI) public onlyOwner {\r\n        baseURI = _URI;\r\n    }\r\n\r\n    function setBaseExtension(string memory _baseExtension) public onlyOwner {\r\n        baseExtension = _baseExtension;\r\n    }\r\n\r\n    function pause(bool _state) public onlyOwner{\r\n        paused = _state;\r\n    }\r\n\r\n    function withdraw() public payable onlyOwner {\r\n        /*\r\n        SEND ARTIST ADDRESS 5% of transactions.\r\n        (bool hs, ) = payable(<ARTIST WALLET ADDRESS>).call{value: address(this.balance) * 5 /100(\"\")};\r\n        require(hs);\r\n        */\r\n\r\n        //Send contract balance to owner contract.\r\n        (bool os, ) = payable(owner()).call{value: address(this).balance}(\"\");\r\n        require(os);\r\n    }\r\n\r\n    \r\n\r\n\r\n}",
  "sourcePath": "C:\\Users\\alexc\\Desktop\\MorseV2\\contracts\\MorseV2.sol",
  "compiler": {
    "name": "solc",
    "version": "0.8.9+commit.e5eed63a.Emscripten.clang"
  },
  "schemaVersion": "3.4.3",
  "updatedAt": "2021-11-16T04:45:06.860Z",
  "networkType": "ethereum",
  "devdoc": {
    "kind": "dev",
    "methods": {
      "approve(address,uint256)": {
        "details": "See {IERC721-approve}."
      },
      "balanceOf(address)": {
        "details": "See {IERC721-balanceOf}."
      },
      "getApproved(uint256)": {
        "details": "See {IERC721-getApproved}."
      },
      "isApprovedForAll(address,address)": {
        "details": "See {IERC721-isApprovedForAll}."
      },
      "name()": {
        "details": "See {IERC721Metadata-name}."
      },
      "owner()": {
        "details": "Returns the address of the current owner."
      },
      "ownerOf(uint256)": {
        "details": "See {IERC721-ownerOf}."
      },
      "renounceOwnership()": {
        "details": "Leaves the contract without owner. It will not be possible to call `onlyOwner` functions anymore. Can only be called by the current owner. NOTE: Renouncing ownership will leave the contract without an owner, thereby removing any functionality that is only available to the owner."
      },
      "safeTransferFrom(address,address,uint256)": {
        "details": "See {IERC721-safeTransferFrom}."
      },
      "safeTransferFrom(address,address,uint256,bytes)": {
        "details": "See {IERC721-safeTransferFrom}."
      },
      "setApprovalForAll(address,bool)": {
        "details": "See {IERC721-setApprovalForAll}."
      },
      "supportsInterface(bytes4)": {
        "details": "See {IERC165-supportsInterface}."
      },
      "symbol()": {
        "details": "See {IERC721Metadata-symbol}."
      },
      "tokenByIndex(uint256)": {
        "details": "See {IERC721Enumerable-tokenByIndex}."
      },
      "tokenOfOwnerByIndex(address,uint256)": {
        "details": "See {IERC721Enumerable-tokenOfOwnerByIndex}."
      },
      "tokenURI(uint256)": {
        "details": "See {IERC721Metadata-tokenURI}."
      },
      "totalSupply()": {
        "details": "See {IERC721Enumerable-totalSupply}."
      },
      "transferFrom(address,address,uint256)": {
        "details": "See {IERC721-transferFrom}."
      },
      "transferOwnership(address)": {
        "details": "Transfers ownership of the contract to a new account (`newOwner`). Can only be called by the current owner."
      }
    },
    "version": 1
  },
  "userdoc": {
    "kind": "user",
    "methods": {},
    "version": 1
  }
}