{
  "contractName": "RandomSVG",
  "abi": [
    {
      "inputs": [
        {
          "internalType": "address",
          "name": "_VRFCoordinator",
          "type": "address"
        },
        {
          "internalType": "address",
          "name": "_LinkToken",
          "type": "address"
        },
        {
          "internalType": "bytes32",
          "name": "_keyHash",
          "type": "bytes32"
        },
        {
          "internalType": "uint256",
          "name": "_fee",
          "type": "uint256"
        }
      ],
      "stateMutability": "nonpayable",
      "type": "constructor"
    },
    {
      "anonymous": false,
      "inputs": [
        {
          "indexed": true,
          "internalType": "address",
          "name": "owner",
          "type": "address"
        },
        {
          "indexed": true,
          "internalType": "address",
          "name": "approved",
          "type": "address"
        },
        {
          "indexed": true,
          "internalType": "uint256",
          "name": "tokenId",
          "type": "uint256"
        }
      ],
      "name": "Approval",
      "type": "event"
    },
    {
      "anonymous": false,
      "inputs": [
        {
          "indexed": true,
          "internalType": "address",
          "name": "owner",
          "type": "address"
        },
        {
          "indexed": true,
          "internalType": "address",
          "name": "operator",
          "type": "address"
        },
        {
          "indexed": false,
          "internalType": "bool",
          "name": "approved",
          "type": "bool"
        }
      ],
      "name": "ApprovalForAll",
      "type": "event"
    },
    {
      "anonymous": false,
      "inputs": [
        {
          "indexed": true,
          "internalType": "address",
          "name": "from",
          "type": "address"
        },
        {
          "indexed": true,
          "internalType": "address",
          "name": "to",
          "type": "address"
        },
        {
          "indexed": true,
          "internalType": "uint256",
          "name": "tokenId",
          "type": "uint256"
        }
      ],
      "name": "Transfer",
      "type": "event"
    },
    {
      "anonymous": false,
      "inputs": [
        {
          "indexed": true,
          "internalType": "uint256",
          "name": "_tokenId",
          "type": "uint256"
        },
        {
          "indexed": false,
          "internalType": "string",
          "name": "_tokenURI",
          "type": "string"
        }
      ],
      "name": "createdRandomSVG",
      "type": "event"
    },
    {
      "anonymous": false,
      "inputs": [
        {
          "indexed": true,
          "internalType": "uint256",
          "name": "_tokenId",
          "type": "uint256"
        },
        {
          "indexed": false,
          "internalType": "uint256",
          "name": "_randomNumber",
          "type": "uint256"
        }
      ],
      "name": "createdUnfinishedRandomSVG",
      "type": "event"
    },
    {
      "anonymous": false,
      "inputs": [
        {
          "indexed": true,
          "internalType": "bytes32",
          "name": "_requestId",
          "type": "bytes32"
        },
        {
          "indexed": true,
          "internalType": "uint256",
          "name": "_tokenId",
          "type": "uint256"
        }
      ],
      "name": "requestedRandomSVG",
      "type": "event"
    },
    {
      "inputs": [
        {
          "internalType": "address",
          "name": "to",
          "type": "address"
        },
        {
          "internalType": "uint256",
          "name": "tokenId",
          "type": "uint256"
        }
      ],
      "name": "approve",
      "outputs": [],
      "stateMutability": "nonpayable",
      "type": "function"
    },
    {
      "inputs": [
        {
          "internalType": "address",
          "name": "owner",
          "type": "address"
        }
      ],
      "name": "balanceOf",
      "outputs": [
        {
          "internalType": "uint256",
          "name": "",
          "type": "uint256"
        }
      ],
      "stateMutability": "view",
      "type": "function",
      "constant": true
    },
    {
      "inputs": [
        {
          "internalType": "uint256",
          "name": "",
          "type": "uint256"
        }
      ],
      "name": "colors",
      "outputs": [
        {
          "internalType": "string",
          "name": "",
          "type": "string"
        }
      ],
      "stateMutability": "view",
      "type": "function",
      "constant": true
    },
    {
      "inputs": [
        {
          "internalType": "uint256",
          "name": "tokenId",
          "type": "uint256"
        }
      ],
      "name": "getApproved",
      "outputs": [
        {
          "internalType": "address",
          "name": "",
          "type": "address"
        }
      ],
      "stateMutability": "view",
      "type": "function",
      "constant": true
    },
    {
      "inputs": [
        {
          "internalType": "address",
          "name": "owner",
          "type": "address"
        },
        {
          "internalType": "address",
          "name": "operator",
          "type": "address"
        }
      ],
      "name": "isApprovedForAll",
      "outputs": [
        {
          "internalType": "bool",
          "name": "",
          "type": "bool"
        }
      ],
      "stateMutability": "view",
      "type": "function",
      "constant": true
    },
    {
      "inputs": [],
      "name": "keyHash",
      "outputs": [
        {
          "internalType": "bytes32",
          "name": "",
          "type": "bytes32"
        }
      ],
      "stateMutability": "view",
      "type": "function",
      "constant": true
    },
    {
      "inputs": [],
      "name": "maxNumberOfPathCommands",
      "outputs": [
        {
          "internalType": "uint256",
          "name": "",
          "type": "uint256"
        }
      ],
      "stateMutability": "view",
      "type": "function",
      "constant": true
    },
    {
      "inputs": [],
      "name": "maxNumberOfPaths",
      "outputs": [
        {
          "internalType": "uint256",
          "name": "",
          "type": "uint256"
        }
      ],
      "stateMutability": "view",
      "type": "function",
      "constant": true
    },
    {
      "inputs": [],
      "name": "name",
      "outputs": [
        {
          "internalType": "string",
          "name": "",
          "type": "string"
        }
      ],
      "stateMutability": "view",
      "type": "function",
      "constant": true
    },
    {
      "inputs": [
        {
          "internalType": "uint256",
          "name": "tokenId",
          "type": "uint256"
        }
      ],
      "name": "ownerOf",
      "outputs": [
        {
          "internalType": "address",
          "name": "",
          "type": "address"
        }
      ],
      "stateMutability": "view",
      "type": "function",
      "constant": true
    },
    {
      "inputs": [
        {
          "internalType": "uint256",
          "name": "",
          "type": "uint256"
        }
      ],
      "name": "pathCommands",
      "outputs": [
        {
          "internalType": "string",
          "name": "",
          "type": "string"
        }
      ],
      "stateMutability": "view",
      "type": "function",
      "constant": true
    },
    {
      "inputs": [
        {
          "internalType": "bytes32",
          "name": "requestId",
          "type": "bytes32"
        },
        {
          "internalType": "uint256",
          "name": "randomness",
          "type": "uint256"
        }
      ],
      "name": "rawFulfillRandomness",
      "outputs": [],
      "stateMutability": "nonpayable",
      "type": "function"
    },
    {
      "inputs": [
        {
          "internalType": "bytes32",
          "name": "",
          "type": "bytes32"
        }
      ],
      "name": "requestIdToSender",
      "outputs": [
        {
          "internalType": "address",
          "name": "",
          "type": "address"
        }
      ],
      "stateMutability": "view",
      "type": "function",
      "constant": true
    },
    {
      "inputs": [
        {
          "internalType": "bytes32",
          "name": "",
          "type": "bytes32"
        }
      ],
      "name": "requestIdToTokenId",
      "outputs": [
        {
          "internalType": "uint256",
          "name": "",
          "type": "uint256"
        }
      ],
      "stateMutability": "view",
      "type": "function",
      "constant": true
    },
    {
      "inputs": [
        {
          "internalType": "address",
          "name": "from",
          "type": "address"
        },
        {
          "internalType": "address",
          "name": "to",
          "type": "address"
        },
        {
          "internalType": "uint256",
          "name": "tokenId",
          "type": "uint256"
        }
      ],
      "name": "safeTransferFrom",
      "outputs": [],
      "stateMutability": "nonpayable",
      "type": "function"
    },
    {
      "inputs": [
        {
          "internalType": "address",
          "name": "from",
          "type": "address"
        },
        {
          "internalType": "address",
          "name": "to",
          "type": "address"
        },
        {
          "internalType": "uint256",
          "name": "tokenId",
          "type": "uint256"
        },
        {
          "internalType": "bytes",
          "name": "_data",
          "type": "bytes"
        }
      ],
      "name": "safeTransferFrom",
      "outputs": [],
      "stateMutability": "nonpayable",
      "type": "function"
    },
    {
      "inputs": [
        {
          "internalType": "address",
          "name": "operator",
          "type": "address"
        },
        {
          "internalType": "bool",
          "name": "approved",
          "type": "bool"
        }
      ],
      "name": "setApprovalForAll",
      "outputs": [],
      "stateMutability": "nonpayable",
      "type": "function"
    },
    {
      "inputs": [],
      "name": "size",
      "outputs": [
        {
          "internalType": "uint256",
          "name": "",
          "type": "uint256"
        }
      ],
      "stateMutability": "view",
      "type": "function",
      "constant": true
    },
    {
      "inputs": [
        {
          "internalType": "bytes4",
          "name": "interfaceId",
          "type": "bytes4"
        }
      ],
      "name": "supportsInterface",
      "outputs": [
        {
          "internalType": "bool",
          "name": "",
          "type": "bool"
        }
      ],
      "stateMutability": "view",
      "type": "function",
      "constant": true
    },
    {
      "inputs": [],
      "name": "symbol",
      "outputs": [
        {
          "internalType": "string",
          "name": "",
          "type": "string"
        }
      ],
      "stateMutability": "view",
      "type": "function",
      "constant": true
    },
    {
      "inputs": [],
      "name": "tokenCounter",
      "outputs": [
        {
          "internalType": "uint256",
          "name": "",
          "type": "uint256"
        }
      ],
      "stateMutability": "view",
      "type": "function",
      "constant": true
    },
    {
      "inputs": [
        {
          "internalType": "uint256",
          "name": "",
          "type": "uint256"
        }
      ],
      "name": "tokenIdToRandomNumber",
      "outputs": [
        {
          "internalType": "uint256",
          "name": "",
          "type": "uint256"
        }
      ],
      "stateMutability": "view",
      "type": "function",
      "constant": true
    },
    {
      "inputs": [
        {
          "internalType": "uint256",
          "name": "tokenId",
          "type": "uint256"
        }
      ],
      "name": "tokenURI",
      "outputs": [
        {
          "internalType": "string",
          "name": "",
          "type": "string"
        }
      ],
      "stateMutability": "view",
      "type": "function",
      "constant": true
    },
    {
      "inputs": [
        {
          "internalType": "address",
          "name": "from",
          "type": "address"
        },
        {
          "internalType": "address",
          "name": "to",
          "type": "address"
        },
        {
          "internalType": "uint256",
          "name": "tokenId",
          "type": "uint256"
        }
      ],
      "name": "transferFrom",
      "outputs": [],
      "stateMutability": "nonpayable",
      "type": "function"
    },
    {
      "inputs": [],
      "name": "create",
      "outputs": [
        {
          "internalType": "bytes32",
          "name": "_requestId",
          "type": "bytes32"
        }
      ],
      "stateMutability": "nonpayable",
      "type": "function"
    },
    {
      "inputs": [
        {
          "internalType": "uint256",
          "name": "_tokenId",
          "type": "uint256"
        }
      ],
      "name": "finishMint",
      "outputs": [],
      "stateMutability": "nonpayable",
      "type": "function"
    },
    {
      "inputs": [
        {
          "internalType": "uint256",
          "name": "_randomNumber",
          "type": "uint256"
        }
      ],
      "name": "generateSVG",
      "outputs": [
        {
          "internalType": "string",
          "name": "_finalSVG",
          "type": "string"
        }
      ],
      "stateMutability": "view",
      "type": "function",
      "constant": true
    },
    {
      "inputs": [
        {
          "internalType": "uint256",
          "name": "_randomNumber",
          "type": "uint256"
        }
      ],
      "name": "generatePath",
      "outputs": [
        {
          "internalType": "string",
          "name": "_pathSvg",
          "type": "string"
        }
      ],
      "stateMutability": "view",
      "type": "function",
      "constant": true
    },
    {
      "inputs": [
        {
          "internalType": "uint256",
          "name": "_randomNumber",
          "type": "uint256"
        }
      ],
      "name": "generatePathCommand",
      "outputs": [
        {
          "internalType": "string",
          "name": "_pathCommand",
          "type": "string"
        }
      ],
      "stateMutability": "view",
      "type": "function",
      "constant": true
    },
    {
      "inputs": [
        {
          "internalType": "string",
          "name": "_svg",
          "type": "string"
        }
      ],
      "name": "svgToImageURI",
      "outputs": [
        {
          "internalType": "string",
          "name": "",
          "type": "string"
        }
      ],
      "stateMutability": "pure",
      "type": "function",
      "constant": true
    },
    {
      "inputs": [
        {
          "internalType": "string",
          "name": "_imageURI",
          "type": "string"
        }
      ],
      "name": "formatTokenURI",
      "outputs": [
        {
          "internalType": "string",
          "name": "",
          "type": "string"
        }
      ],
      "stateMutability": "pure",
      "type": "function",
      "constant": true
    }
  ],
  "bytecode": "0x60c06040526101f4600d553480156200001757600080fd5b5060405162004f0738038062004f0783398181016040528101906200003d9190620005c0565b83836040518060400160405280600981526020017f52616e646f6d53564700000000000000000000000000000000000000000000008152506040518060400160405280600581526020017f72734e46540000000000000000000000000000000000000000000000000000008152508160009080519060200190620000c39291906200038f565b508060019080519060200190620000dc9291906200038f565b5050508173ffffffffffffffffffffffffffffffffffffffff1660a08173ffffffffffffffffffffffffffffffffffffffff1660601b815250508073ffffffffffffffffffffffffffffffffffffffff1660808173ffffffffffffffffffffffffffffffffffffffff1660601b81525050505080600981905550816008819055506000600a81905550600a600b819055506005600c8190555060405180604001604052806040518060400160405280600181526020017f4d0000000000000000000000000000000000000000000000000000000000000081525081526020016040518060400160405280600181526020017f4c00000000000000000000000000000000000000000000000000000000000000815250815250600e9060026200020692919062000420565b506040518060c001604052806040518060400160405280600381526020017f726564000000000000000000000000000000000000000000000000000000000081525081526020016040518060400160405280600481526020017f626c75650000000000000000000000000000000000000000000000000000000081525081526020016040518060400160405280600581526020017f677265656e00000000000000000000000000000000000000000000000000000081525081526020016040518060400160405280600681526020017f79656c6c6f77000000000000000000000000000000000000000000000000000081525081526020016040518060400160405280600581526020017f626c61636b00000000000000000000000000000000000000000000000000000081525081526020016040518060400160405280600581526020017f7768697465000000000000000000000000000000000000000000000000000000815250815250600f9060066200038492919062000487565b505050505062000727565b8280546200039d9062000674565b90600052602060002090601f016020900481019282620003c157600085556200040d565b82601f10620003dc57805160ff19168380011785556200040d565b828001600101855582156200040d579182015b828111156200040c578251825591602001919060010190620003ef565b5b5090506200041c9190620004ee565b5090565b82805482825590600052602060002090810192821562000474579160200282015b8281111562000473578251829080519060200190620004629291906200038f565b509160200191906001019062000441565b5b5090506200048391906200050d565b5090565b828054828255906000526020600020908101928215620004db579160200282015b82811115620004da578251829080519060200190620004c99291906200038f565b5091602001919060010190620004a8565b5b509050620004ea91906200050d565b5090565b5b8082111562000509576000816000905550600101620004ef565b5090565b5b8082111562000531576000818162000527919062000535565b506001016200050e565b5090565b508054620005439062000674565b6000825580601f1062000557575062000578565b601f016020900490600052602060002090810190620005779190620004ee565b5b50565b6000815190506200058c81620006d9565b92915050565b600081519050620005a381620006f3565b92915050565b600081519050620005ba816200070d565b92915050565b60008060008060808587031215620005d757600080fd5b6000620005e7878288016200057b565b9450506020620005fa878288016200057b565b93505060406200060d8782880162000592565b92505060606200062087828801620005a9565b91505092959194509250565b600062000639826200064a565b9050919050565b6000819050919050565b600073ffffffffffffffffffffffffffffffffffffffff82169050919050565b6000819050919050565b600060028204905060018216806200068d57607f821691505b60208210811415620006a457620006a3620006aa565b5b50919050565b7f4e487b7100000000000000000000000000000000000000000000000000000000600052602260045260246000fd5b620006e4816200062c565b8114620006f057600080fd5b50565b620006fe8162000640565b81146200070a57600080fd5b50565b62000718816200066a565b81146200072457600080fd5b50565b60805160601c60a05160601c6147ad6200075a6000396000818161117b0152612532015260006124f601526147ad6000f3fe608060405234801561001057600080fd5b50600436106101e55760003560e01c806370a082311161010f578063b88d4fde116100a2578063c87b56dd11610071578063c87b56dd14610602578063d082e38114610632578063e985e9c514610650578063efc81a8c14610680576101e5565b8063b88d4fde14610568578063bd11f69d14610584578063c21bf36f146105b4578063c68b49d1146105d2576101e5565b8063955968d4116100de578063955968d4146104ce57806395d89b41146104fe5780639c1cd7951461051c578063a22cb4651461054c576101e5565b806370a082311461043457806371aee1931461046457806394985ddd14610494578063949d225d146104b0576101e5565b806330d871c61161018757806361728f391161015657806361728f391461039a578063624194c7146103b85780636352211e146103d45780636dcee4ca14610404576101e5565b806330d871c61461030057806333af59891461033057806342842e0e1461036057806348e896ab1461037c576101e5565b8063095ea7b3116101c3578063095ea7b314610268578063219c0eee1461028457806322881f88146102b457806323b872dd146102e4576101e5565b806301ffc9a7146101ea57806306fdde031461021a578063081812fc14610238575b600080fd5b61020460048036038101906101ff91906130a1565b61069e565b6040516102119190613ec0565b60405180910390f35b610222610780565b60405161022f9190613f64565b60405180910390f35b610252600480360381019061024d9190613134565b610812565b60405161025f9190613e1b565b60405180910390f35b610282600480360381019061027d9190612fd7565b610897565b005b61029e6004803603810190610299919061303c565b6109af565b6040516102ab9190613e1b565b60405180910390f35b6102ce60048036038101906102c9919061303c565b6109e2565b6040516102db9190614206565b60405180910390f35b6102fe60048036038101906102f99190612ed1565b6109fa565b005b61031a600480360381019061031591906130f3565b610a5a565b6040516103279190613f64565b60405180910390f35b61034a60048036038101906103459190613134565b610af3565b6040516103579190613f64565b60405180910390f35b61037a60048036038101906103759190612ed1565b610ce5565b005b610384610d05565b6040516103919190614206565b60405180910390f35b6103a2610d0b565b6040516103af9190613edb565b60405180910390f35b6103d260048036038101906103cd9190613134565b610d11565b005b6103ee60048036038101906103e99190613134565b610e80565b6040516103fb9190613e1b565b60405180910390f35b61041e60048036038101906104199190613134565b610f32565b60405161042b9190613f64565b60405180910390f35b61044e60048036038101906104499190612e6c565b611034565b60405161045b9190614206565b60405180910390f35b61047e600480360381019061047991906130f3565b6110ec565b60405161048b9190613f64565b60405180910390f35b6104ae60048036038101906104a99190613065565b611179565b005b6104b8611215565b6040516104c59190614206565b60405180910390f35b6104e860048036038101906104e39190613134565b61121b565b6040516104f59190613f64565b60405180910390f35b6105066112c7565b6040516105139190613f64565b60405180910390f35b61053660048036038101906105319190613134565b611359565b6040516105439190614206565b60405180910390f35b61056660048036038101906105619190612f9b565b611371565b005b610582600480360381019061057d9190612f20565b6114f2565b005b61059e60048036038101906105999190613134565b611554565b6040516105ab9190613f64565b60405180910390f35b6105bc611600565b6040516105c99190614206565b60405180910390f35b6105ec60048036038101906105e79190613134565b611606565b6040516105f99190613f64565b60405180910390f35b61061c60048036038101906106179190613134565b6117b9565b6040516106299190613f64565b60405180910390f35b61063a61190b565b6040516106479190614206565b60405180910390f35b61066a60048036038101906106659190612e95565b611911565b6040516106779190613ec0565b60405180910390f35b6106886119a5565b6040516106959190613edb565b60405180910390f35b60007f80ac58cd000000000000000000000000000000000000000000000000000000007bffffffffffffffffffffffffffffffffffffffffffffffffffffffff1916827bffffffffffffffffffffffffffffffffffffffffffffffffffffffff1916148061076957507f5b5e139f000000000000000000000000000000000000000000000000000000007bffffffffffffffffffffffffffffffffffffffffffffffffffffffff1916827bffffffffffffffffffffffffffffffffffffffffffffffffffffffff1916145b80610779575061077882611a6f565b5b9050919050565b60606000805461078f90614537565b80601f01602080910402602001604051908101604052809291908181526020018280546107bb90614537565b80156108085780601f106107dd57610100808354040283529160200191610808565b820191906000526020600020905b8154815290600101906020018083116107eb57829003601f168201915b5050505050905090565b600061081d82611ad9565b61085c576040517f08c379a000000000000000000000000000000000000000000000000000000000815260040161085390614126565b60405180910390fd5b6004600083815260200190815260200160002060009054906101000a900473ffffffffffffffffffffffffffffffffffffffff169050919050565b60006108a282610e80565b90508073ffffffffffffffffffffffffffffffffffffffff168373ffffffffffffffffffffffffffffffffffffffff161415610913576040517f08c379a000000000000000000000000000000000000000000000000000000000815260040161090a906141a6565b60405180910390fd5b8073ffffffffffffffffffffffffffffffffffffffff16610932611b45565b73ffffffffffffffffffffffffffffffffffffffff16148061096157506109608161095b611b45565b611911565b5b6109a0576040517f08c379a000000000000000000000000000000000000000000000000000000000815260040161099790614046565b60405180910390fd5b6109aa8383611b4d565b505050565b60106020528060005260406000206000915054906101000a900473ffffffffffffffffffffffffffffffffffffffff1681565b60116020528060005260406000206000915090505481565b610a0b610a05611b45565b82611c06565b610a4a576040517f08c379a0000000000000000000000000000000000000000000000000000000008152600401610a41906141c6565b60405180910390fd5b610a55838383611ce4565b505050565b606060006040518060400160405280601a81526020017f646174613a696d6167652f7376672b786d6c3b6261736536342c00000000000081525090506000610ac084604051602001610aac9190613caa565b604051602081830303815290604052611f40565b905060008282604051602001610ad7929190613cc1565b6040516020818303038152906040529050809350505050919050565b606060006001600c5484610b0791906145c6565b610b11919061431e565b90506040518060400160405280600981526020017f3c7061746820643d270000000000000000000000000000000000000000000000815250915060005b81811015610bd95760008482600d54610b67919061431e565b604051602001610b78929190614221565b6040516020818303038152906040528051906020012060001c90506000610b9e82611606565b90508481604051602001610bb3929190613cc1565b604051602081830303815290604052945050508080610bd190614569565b915050610b4e565b506000600f808054905085610bee91906145c6565b81548110610c25577f4e487b7100000000000000000000000000000000000000000000000000000000600052603260045260246000fd5b906000526020600020018054610c3a90614537565b80601f0160208091040260200160405190810160405280929190818152602001828054610c6690614537565b8015610cb35780601f10610c8857610100808354040283529160200191610cb3565b820191906000526020600020905b815481529060010190602001808311610c9657829003601f168201915b505050505090508281604051602001610ccd929190613ce5565b60405160208183030381529060405292505050919050565b610d00838383604051806020016040528060008152506114f2565b505050565b600c5481565b60085481565b6000610d1c826117b9565b511115610d5e576040517f08c379a0000000000000000000000000000000000000000000000000000000008152600401610d55906141e6565b60405180910390fd5b80600a5411610da2576040517f08c379a0000000000000000000000000000000000000000000000000000000008152600401610d99906140c6565b60405180910390fd5b6000601260008381526020019081526020016000205411610df8576040517f08c379a0000000000000000000000000000000000000000000000000000000008152600401610def90613fc6565b60405180910390fd5b6000601260008381526020019081526020016000205490506000610e1b82610f32565b90506000610e2882610a5a565b90506000610e35826110ec565b9050610e4185826120df565b847fb662a5131fe3646dc05ebcc07180161553152610daffb7bb78df70229f0fbe2a82604051610e719190613f64565b60405180910390a25050505050565b6000806002600084815260200190815260200160002060009054906101000a900473ffffffffffffffffffffffffffffffffffffffff169050600073ffffffffffffffffffffffffffffffffffffffff168173ffffffffffffffffffffffffffffffffffffffff161415610f29576040517f08c379a0000000000000000000000000000000000000000000000000000000008152600401610f2090614086565b60405180910390fd5b80915050919050565b606060006001600b5484610f4691906145c6565b610f50919061431e565b9050610f5d600d54612153565b610f68600d54612153565b604051602001610f79929190613dd6565b604051602081830303815290604052915060005b8181101561100b5760008482604051602001610faa929190614221565b6040516020818303038152906040528051906020012060001c90506000610fd082610af3565b90508481604051602001610fe5929190613cc1565b60405160208183030381529060405294505050808061100390614569565b915050610f8d565b508160405160200161101d9190613d66565b604051602081830303815290604052915050919050565b60008073ffffffffffffffffffffffffffffffffffffffff168273ffffffffffffffffffffffffffffffffffffffff1614156110a5576040517f08c379a000000000000000000000000000000000000000000000000000000000815260040161109c90614066565b60405180910390fd5b600360008373ffffffffffffffffffffffffffffffffffffffff1673ffffffffffffffffffffffffffffffffffffffff168152602001908152602001600020549050919050565b606060006040518060400160405280601d81526020017f646174613a6170706c69636174696f6e2f6a736f6e3b6261736536342c0000008152509050806111518460405160200161113d9190613d88565b604051602081830303815290604052611f40565b604051602001611162929190613cc1565b604051602081830303815290604052915050919050565b7f000000000000000000000000000000000000000000000000000000000000000073ffffffffffffffffffffffffffffffffffffffff163373ffffffffffffffffffffffffffffffffffffffff1614611207576040517f08c379a00000000000000000000000000000000000000000000000000000000081526004016111fe90614186565b60405180910390fd5b6112118282612328565b5050565b600d5481565b600e818154811061122b57600080fd5b90600052602060002001600091509050805461124690614537565b80601f016020809104026020016040519081016040528092919081815260200182805461127290614537565b80156112bf5780601f10611294576101008083540402835291602001916112bf565b820191906000526020600020905b8154815290600101906020018083116112a257829003601f168201915b505050505081565b6060600180546112d690614537565b80601f016020809104026020016040519081016040528092919081815260200182805461130290614537565b801561134f5780601f106113245761010080835404028352916020019161134f565b820191906000526020600020905b81548152906001019060200180831161133257829003601f168201915b5050505050905090565b60126020528060005260406000206000915090505481565b611379611b45565b73ffffffffffffffffffffffffffffffffffffffff168273ffffffffffffffffffffffffffffffffffffffff1614156113e7576040517f08c379a00000000000000000000000000000000000000000000000000000000081526004016113de90614006565b60405180910390fd5b80600560006113f4611b45565b73ffffffffffffffffffffffffffffffffffffffff1673ffffffffffffffffffffffffffffffffffffffff16815260200190815260200160002060008473ffffffffffffffffffffffffffffffffffffffff1673ffffffffffffffffffffffffffffffffffffffff16815260200190815260200160002060006101000a81548160ff0219169083151502179055508173ffffffffffffffffffffffffffffffffffffffff166114a1611b45565b73ffffffffffffffffffffffffffffffffffffffff167f17307eab39ab6107e8899845ad3d59bd9653f200f220920489ca2b5937696c31836040516114e69190613ec0565b60405180910390a35050565b6115036114fd611b45565b83611c06565b611542576040517f08c379a0000000000000000000000000000000000000000000000000000000008152600401611539906141c6565b60405180910390fd5b61154e848484846123d8565b50505050565b600f818154811061156457600080fd5b90600052602060002001600091509050805461157f90614537565b80601f01602080910402602001604051908101604052809291908181526020018280546115ab90614537565b80156115f85780601f106115cd576101008083540402835291602001916115f8565b820191906000526020600020905b8154815290600101906020018083116115db57829003601f168201915b505050505081565b600b5481565b6060600e80805490508361161a91906145c6565b81548110611651577f4e487b7100000000000000000000000000000000000000000000000000000000600052603260045260246000fd5b90600052602060002001805461166690614537565b80601f016020809104026020016040519081016040528092919081815260200182805461169290614537565b80156116df5780601f106116b4576101008083540402835291602001916116df565b820191906000526020600020905b8154815290600101906020018083116116c257829003601f168201915b505050505090506000600d54836002600d546116fb91906143dc565b60405160200161170c929190614221565b6040516020818303038152906040528051906020012060001c61172f91906145c6565b90506000600d54846003600d5461174691906143dc565b604051602001611757929190614221565b6040516020818303038152906040528051906020012060001c61177a91906145c6565b90508261178683612153565b61178f83612153565b6040516020016117a193929190613d1f565b60405160208183030381529060405292505050919050565b60606117c482611ad9565b611803576040517f08c379a00000000000000000000000000000000000000000000000000000000081526004016117fa90614106565b60405180910390fd5b600060066000848152602001908152602001600020805461182390614537565b80601f016020809104026020016040519081016040528092919081815260200182805461184f90614537565b801561189c5780601f106118715761010080835404028352916020019161189c565b820191906000526020600020905b81548152906001019060200180831161187f57829003601f168201915b5050505050905060006118ad612434565b90506000815114156118c3578192505050611906565b6000825111156118f85780826040516020016118e0929190613cc1565b60405160208183030381529060405292505050611906565b6119018461244b565b925050505b919050565b600a5481565b6000600560008473ffffffffffffffffffffffffffffffffffffffff1673ffffffffffffffffffffffffffffffffffffffff16815260200190815260200160002060008373ffffffffffffffffffffffffffffffffffffffff1673ffffffffffffffffffffffffffffffffffffffff16815260200190815260200160002060009054906101000a900460ff16905092915050565b60006119b56008546009546124f2565b9050336010600083815260200190815260200160002060006101000a81548173ffffffffffffffffffffffffffffffffffffffff021916908373ffffffffffffffffffffffffffffffffffffffff1602179055506000600a5490508060116000848152602001908152602001600020819055506001600a54611a37919061431e565b600a8190555080827fb97343f1f2afc4959f818046ccae28fd7b05fcd2b7a7dc651cbb52a096cae03560405160405180910390a35090565b60007f01ffc9a7000000000000000000000000000000000000000000000000000000007bffffffffffffffffffffffffffffffffffffffffffffffffffffffff1916827bffffffffffffffffffffffffffffffffffffffffffffffffffffffff1916149050919050565b60008073ffffffffffffffffffffffffffffffffffffffff166002600084815260200190815260200160002060009054906101000a900473ffffffffffffffffffffffffffffffffffffffff1673ffffffffffffffffffffffffffffffffffffffff1614159050919050565b600033905090565b816004600083815260200190815260200160002060006101000a81548173ffffffffffffffffffffffffffffffffffffffff021916908373ffffffffffffffffffffffffffffffffffffffff160217905550808273ffffffffffffffffffffffffffffffffffffffff16611bc083610e80565b73ffffffffffffffffffffffffffffffffffffffff167f8c5be1e5ebec7d5bd14f71427d1e84f3dd0314c0f7b2291e5b200ac8c7c3b92560405160405180910390a45050565b6000611c1182611ad9565b611c50576040517f08c379a0000000000000000000000000000000000000000000000000000000008152600401611c4790614026565b60405180910390fd5b6000611c5b83610e80565b90508073ffffffffffffffffffffffffffffffffffffffff168473ffffffffffffffffffffffffffffffffffffffff161480611cca57508373ffffffffffffffffffffffffffffffffffffffff16611cb284610812565b73ffffffffffffffffffffffffffffffffffffffff16145b80611cdb5750611cda8185611911565b5b91505092915050565b8273ffffffffffffffffffffffffffffffffffffffff16611d0482610e80565b73ffffffffffffffffffffffffffffffffffffffff1614611d5a576040517f08c379a0000000000000000000000000000000000000000000000000000000008152600401611d5190614146565b60405180910390fd5b600073ffffffffffffffffffffffffffffffffffffffff168273ffffffffffffffffffffffffffffffffffffffff161415611dca576040517f08c379a0000000000000000000000000000000000000000000000000000000008152600401611dc190613fe6565b60405180910390fd5b611dd5838383612654565b611de0600082611b4d565b6001600360008573ffffffffffffffffffffffffffffffffffffffff1673ffffffffffffffffffffffffffffffffffffffff1681526020019081526020016000206000828254611e309190614436565b925050819055506001600360008473ffffffffffffffffffffffffffffffffffffffff1673ffffffffffffffffffffffffffffffffffffffff1681526020019081526020016000206000828254611e87919061431e565b92505081905550816002600083815260200190815260200160002060006101000a81548173ffffffffffffffffffffffffffffffffffffffff021916908373ffffffffffffffffffffffffffffffffffffffff160217905550808273ffffffffffffffffffffffffffffffffffffffff168473ffffffffffffffffffffffffffffffffffffffff167fddf252ad1be2c89b69c2b068fc378daa952ba7f163c4a11628f55a4df523b3ef60405160405180910390a4505050565b6060600082511415611f63576040518060200160405280600081525090506120da565b60006040518060600160405280604081526020016147386040913990506000600360028551611f92919061431e565b611f9c91906143ab565b6004611fa891906143dc565b90506000602082611fb9919061431e565b67ffffffffffffffff811115611ff8577f4e487b7100000000000000000000000000000000000000000000000000000000600052604160045260246000fd5b6040519080825280601f01601f19166020018201604052801561202a5781602001600182028036833780820191505090505b509050818152600183018586518101602084015b81831015612099576003830192508251603f8160121c168501518253600182019150603f81600c1c168501518253600182019150603f8160061c168501518253600182019150603f811685015182536001820191505061203e565b6003895106600181146120b357600281146120c3576120ce565b613d3d60f01b60028303526120ce565b603d60f81b60018303525b50505050508093505050505b919050565b6120e882611ad9565b612127576040517f08c379a000000000000000000000000000000000000000000000000000000000815260040161211e906140a6565b60405180910390fd5b8060066000848152602001908152602001600020908051906020019061214e929190612c66565b505050565b6060600082141561219b576040518060400160405280600181526020017f30000000000000000000000000000000000000000000000000000000000000008152509050612323565b600082905060005b600082146121cd5780806121b690614569565b915050600a826121c691906143ab565b91506121a3565b60008167ffffffffffffffff81111561220f577f4e487b7100000000000000000000000000000000000000000000000000000000600052604160045260246000fd5b6040519080825280601f01601f1916602001820160405280156122415781602001600182028036833780820191505090505b50905060008290505b6000861461231b5760018161225f9190614436565b90506000600a808861227191906143ab565b61227b91906143dc565b876122869190614436565b60306122929190614374565b905060008160f81b9050808484815181106122d6577f4e487b7100000000000000000000000000000000000000000000000000000000600052603260045260246000fd5b60200101907effffffffffffffffffffffffffffffffffffffffffffffffffffffffffffff1916908160001a905350600a8861231291906143ab565b9750505061224a565b819450505050505b919050565b60006010600084815260200190815260200160002060009054906101000a900473ffffffffffffffffffffffffffffffffffffffff1690506000601160008581526020019081526020016000205490506123828282612659565b826012600083815260200190815260200160002081905550807fea43dac1b92e3e24ce46727d896f6d773504b5b704a6485ed74673b7db4d7362846040516123ca9190614206565b60405180910390a250505050565b6123e3848484611ce4565b6123ef84848484612677565b61242e576040517f08c379a000000000000000000000000000000000000000000000000000000000815260040161242590613f86565b60405180910390fd5b50505050565b606060405180602001604052806000815250905090565b606061245682611ad9565b612495576040517f08c379a000000000000000000000000000000000000000000000000000000000815260040161248c90614166565b60405180910390fd5b600061249f612434565b905060008151116124bf57604051806020016040528060008152506124ea565b806124c98461280e565b6040516020016124da929190613cc1565b6040516020818303038152906040525b915050919050565b60007f000000000000000000000000000000000000000000000000000000000000000073ffffffffffffffffffffffffffffffffffffffff16634000aea07f000000000000000000000000000000000000000000000000000000000000000084866000604051602001612566929190613ef6565b6040516020818303038152906040526040518463ffffffff1660e01b815260040161259393929190613e82565b602060405180830381600087803b1580156125ad57600080fd5b505af11580156125c1573d6000803e3d6000fd5b505050506040513d601f19601f820116820180604052508101906125e59190613013565b5060006126088460003060076000898152602001908152602001600020546129bb565b90506001600760008681526020019081526020016000205461262a919061431e565b600760008681526020019081526020016000208190555061264b84826129f7565b91505092915050565b505050565b612673828260405180602001604052806000815250612a2a565b5050565b60006126988473ffffffffffffffffffffffffffffffffffffffff16612a85565b15612801578373ffffffffffffffffffffffffffffffffffffffff1663150b7a026126c1611b45565b8786866040518563ffffffff1660e01b81526004016126e39493929190613e36565b602060405180830381600087803b1580156126fd57600080fd5b505af192505050801561272e57506040513d601f19601f8201168201806040525081019061272b91906130ca565b60015b6127b1573d806000811461275e576040519150601f19603f3d011682016040523d82523d6000602084013e612763565b606091505b506000815114156127a9576040517f08c379a00000000000000000000000000000000000000000000000000000000081526004016127a090613f86565b60405180910390fd5b805181602001fd5b63150b7a0260e01b7bffffffffffffffffffffffffffffffffffffffffffffffffffffffff1916817bffffffffffffffffffffffffffffffffffffffffffffffffffffffff191614915050612806565b600190505b949350505050565b60606000821415612856576040518060400160405280600181526020017f300000000000000000000000000000000000000000000000000000000000000081525090506129b6565b600082905060005b6000821461288857808061287190614569565b915050600a8261288191906143ab565b915061285e565b60008167ffffffffffffffff8111156128ca577f4e487b7100000000000000000000000000000000000000000000000000000000600052604160045260246000fd5b6040519080825280601f01601f1916602001820160405280156128fc5781602001600182028036833780820191505090505b5090505b600085146129af576001826129159190614436565b9150600a8561292491906145c6565b6030612930919061431e565b60f81b81838151811061296c577f4e487b7100000000000000000000000000000000000000000000000000000000600052603260045260246000fd5b60200101907effffffffffffffffffffffffffffffffffffffffffffffffffffffffffffff1916908160001a905350600a856129a891906143ab565b9450612900565b8093505050505b919050565b6000848484846040516020016129d49493929190613f1f565b6040516020818303038152906040528051906020012060001c9050949350505050565b60008282604051602001612a0c929190613c7e565b60405160208183030381529060405280519060200120905092915050565b612a348383612a98565b612a416000848484612677565b612a80576040517f08c379a0000000000000000000000000000000000000000000000000000000008152600401612a7790613f86565b60405180910390fd5b505050565b600080823b905060008111915050919050565b600073ffffffffffffffffffffffffffffffffffffffff168273ffffffffffffffffffffffffffffffffffffffff161415612b08576040517f08c379a0000000000000000000000000000000000000000000000000000000008152600401612aff906140e6565b60405180910390fd5b612b1181611ad9565b15612b51576040517f08c379a0000000000000000000000000000000000000000000000000000000008152600401612b4890613fa6565b60405180910390fd5b612b5d60008383612654565b6001600360008473ffffffffffffffffffffffffffffffffffffffff1673ffffffffffffffffffffffffffffffffffffffff1681526020019081526020016000206000828254612bad919061431e565b92505081905550816002600083815260200190815260200160002060006101000a81548173ffffffffffffffffffffffffffffffffffffffff021916908373ffffffffffffffffffffffffffffffffffffffff160217905550808273ffffffffffffffffffffffffffffffffffffffff16600073ffffffffffffffffffffffffffffffffffffffff167fddf252ad1be2c89b69c2b068fc378daa952ba7f163c4a11628f55a4df523b3ef60405160405180910390a45050565b828054612c7290614537565b90600052602060002090601f016020900481019282612c945760008555612cdb565b82601f10612cad57805160ff1916838001178555612cdb565b82800160010185558215612cdb579182015b82811115612cda578251825591602001919060010190612cbf565b5b509050612ce89190612cec565b5090565b5b80821115612d05576000816000905550600101612ced565b5090565b6000612d1c612d178461427b565b61424a565b905082815260208101848484011115612d3457600080fd5b612d3f8482856144f5565b509392505050565b6000612d5a612d55846142ab565b61424a565b905082815260208101848484011115612d7257600080fd5b612d7d8482856144f5565b509392505050565b600081359050612d94816146c4565b92915050565b600081359050612da9816146db565b92915050565b600081519050612dbe816146db565b92915050565b600081359050612dd3816146f2565b92915050565b600081359050612de881614709565b92915050565b600081519050612dfd81614709565b92915050565b600082601f830112612e1457600080fd5b8135612e24848260208601612d09565b91505092915050565b600082601f830112612e3e57600080fd5b8135612e4e848260208601612d47565b91505092915050565b600081359050612e6681614720565b92915050565b600060208284031215612e7e57600080fd5b6000612e8c84828501612d85565b91505092915050565b60008060408385031215612ea857600080fd5b6000612eb685828601612d85565b9250506020612ec785828601612d85565b9150509250929050565b600080600060608486031215612ee657600080fd5b6000612ef486828701612d85565b9350506020612f0586828701612d85565b9250506040612f1686828701612e57565b9150509250925092565b60008060008060808587031215612f3657600080fd5b6000612f4487828801612d85565b9450506020612f5587828801612d85565b9350506040612f6687828801612e57565b925050606085013567ffffffffffffffff811115612f8357600080fd5b612f8f87828801612e03565b91505092959194509250565b60008060408385031215612fae57600080fd5b6000612fbc85828601612d85565b9250506020612fcd85828601612d9a565b9150509250929050565b60008060408385031215612fea57600080fd5b6000612ff885828601612d85565b925050602061300985828601612e57565b9150509250929050565b60006020828403121561302557600080fd5b600061303384828501612daf565b91505092915050565b60006020828403121561304e57600080fd5b600061305c84828501612dc4565b91505092915050565b6000806040838503121561307857600080fd5b600061308685828601612dc4565b925050602061309785828601612e57565b9150509250929050565b6000602082840312156130b357600080fd5b60006130c184828501612dd9565b91505092915050565b6000602082840312156130dc57600080fd5b60006130ea84828501612dee565b91505092915050565b60006020828403121561310557600080fd5b600082013567ffffffffffffffff81111561311f57600080fd5b61312b84828501612e2d565b91505092915050565b60006020828403121561314657600080fd5b600061315484828501612e57565b91505092915050565b6131668161446a565b82525050565b6131758161447c565b82525050565b61318481614488565b82525050565b61319b61319682614488565b6145b2565b82525050565b60006131ac826142db565b6131b681856142f1565b93506131c6818560208601614504565b6131cf816146b3565b840191505092915050565b60006131e5826142e6565b6131ef8185614302565b93506131ff818560208601614504565b613208816146b3565b840191505092915050565b600061321e826142e6565b6132288185614313565b9350613238818560208601614504565b80840191505092915050565b6000613251600883614313565b91507f22696d616765223a0000000000000000000000000000000000000000000000006000830152600882019050919050565b6000613291601483614313565b91507f7b226e616d65223a20224d6f7273654e4654222c0000000000000000000000006000830152601482019050919050565b60006132d1603283614302565b91507f4552433732313a207472616e7366657220746f206e6f6e20455243373231526560008301527f63656976657220696d706c656d656e74657200000000000000000000000000006020830152604082019050919050565b6000613337601c83614302565b91507f4552433732313a20746f6b656e20616c7265616479206d696e746564000000006000830152602082019050919050565b6000613377601e83614302565b91507f4e65656420746f207761697420666f7220636861696e6c696e6b2056524600006000830152602082019050919050565b60006133b7602483614302565b91507f4552433732313a207472616e7366657220746f20746865207a65726f2061646460008301527f72657373000000000000000000000000000000000000000000000000000000006020830152604082019050919050565b600061341d601983614302565b91507f4552433732313a20617070726f766520746f2063616c6c6572000000000000006000830152602082019050919050565b600061345d602083614313565b91507f226465736372697074696f6e223a20224d6f72736520436f6465204e4654222c6000830152602082019050919050565b600061349d602c83614302565b91507f4552433732313a206f70657261746f7220717565727920666f72206e6f6e657860008301527f697374656e7420746f6b656e00000000000000000000000000000000000000006020830152604082019050919050565b6000613503601d83614313565b91507f272066696c6c3d277472616e73706172656e7427207374726f6b653d270000006000830152601d82019050919050565b6000613543600183614313565b91507f20000000000000000000000000000000000000000000000000000000000000006000830152600182019050919050565b6000613583600383614313565b91507f272f3e00000000000000000000000000000000000000000000000000000000006000830152600382019050919050565b60006135c3603883614302565b91507f4552433732313a20617070726f76652063616c6c6572206973206e6f74206f7760008301527f6e6572206e6f7220617070726f76656420666f7220616c6c00000000000000006020830152604082019050919050565b6000613629602a83614302565b91507f4552433732313a2062616c616e636520717565727920666f7220746865207a6560008301527f726f2061646472657373000000000000000000000000000000000000000000006020830152604082019050919050565b600061368f602983614302565b91507f4552433732313a206f776e657220717565727920666f72206e6f6e657869737460008301527f656e7420746f6b656e00000000000000000000000000000000000000000000006020830152604082019050919050565b60006136f5602e83614302565b91507f45524337323155524953746f726167653a2055524920736574206f66206e6f6e60008301527f6578697374656e7420746f6b656e0000000000000000000000000000000000006020830152604082019050919050565b600061375b602083614302565b91507f546f6b656e496420686173206e6f74206265656e206d696e74656420796574216000830152602082019050919050565b600061379b602083614302565b91507f4552433732313a206d696e7420746f20746865207a65726f20616464726573736000830152602082019050919050565b60006137db600183614313565b91507f7d000000000000000000000000000000000000000000000000000000000000006000830152600182019050919050565b600061381b603183614302565b91507f45524337323155524953746f726167653a2055524920717565727920666f722060008301527f6e6f6e6578697374656e7420746f6b656e0000000000000000000000000000006020830152604082019050919050565b6000613881602c83614302565b91507f4552433732313a20617070726f76656420717565727920666f72206e6f6e657860008301527f697374656e7420746f6b656e00000000000000000000000000000000000000006020830152604082019050919050565b60006138e7602983614302565b91507f4552433732313a207472616e73666572206f6620746f6b656e2074686174206960008301527f73206e6f74206f776e00000000000000000000000000000000000000000000006020830152604082019050919050565b600061394d602f83614302565b91507f4552433732314d657461646174613a2055524920717565727920666f72206e6f60008301527f6e6578697374656e7420746f6b656e00000000000000000000000000000000006020830152604082019050919050565b60006139b3603083614313565b91507f3c73766720786d6c6e733d22687474703a2f2f7777772e77332e6f72672f323060008301527f30302f73766722206865696768743d22000000000000000000000000000000006020830152603082019050919050565b6000613a19601f83614302565b91507f4f6e6c7920565246436f6f7264696e61746f722063616e2066756c66696c6c006000830152602082019050919050565b6000613a59602183614302565b91507f4552433732313a20617070726f76616c20746f2063757272656e74206f776e6560008301527f72000000000000000000000000000000000000000000000000000000000000006020830152604082019050919050565b6000613abf603183614302565b91507f4552433732313a207472616e736665722063616c6c6572206973206e6f74206f60008301527f776e6572206e6f7220617070726f7665640000000000000000000000000000006020830152604082019050919050565b6000613b25601d83614302565b91507f546f6b656e2055524920697320616c726561647920616c6c20736574210000006000830152602082019050919050565b6000613b65600283614313565b91507f223e0000000000000000000000000000000000000000000000000000000000006000830152600282019050919050565b6000613ba5601183614313565b91507f2261747472696275746573223a2022222c0000000000000000000000000000006000830152601182019050919050565b6000613be5600683614313565b91507f3c2f7376673e00000000000000000000000000000000000000000000000000006000830152600682019050919050565b6000613c25600983614313565b91507f222077696474683d2200000000000000000000000000000000000000000000006000830152600982019050919050565b613c61816144de565b82525050565b613c78613c73826144de565b6145bc565b82525050565b6000613c8a828561318a565b602082019150613c9a8284613c67565b6020820191508190509392505050565b6000613cb68284613213565b915081905092915050565b6000613ccd8285613213565b9150613cd98284613213565b91508190509392505050565b6000613cf18285613213565b9150613cfc826134f6565b9150613d088284613213565b9150613d1382613576565b91508190509392505050565b6000613d2b8286613213565b9150613d3682613536565b9150613d428285613213565b9150613d4d82613536565b9150613d598284613213565b9150819050949350505050565b6000613d728284613213565b9150613d7d82613bd8565b915081905092915050565b6000613d9382613284565b9150613d9e82613450565b9150613da982613b98565b9150613db482613244565b9150613dc08284613213565b9150613dcb826137ce565b915081905092915050565b6000613de1826139a6565b9150613ded8285613213565b9150613df882613c18565b9150613e048284613213565b9150613e0f82613b58565b91508190509392505050565b6000602082019050613e30600083018461315d565b92915050565b6000608082019050613e4b600083018761315d565b613e58602083018661315d565b613e656040830185613c58565b8181036060830152613e7781846131a1565b905095945050505050565b6000606082019050613e97600083018661315d565b613ea46020830185613c58565b8181036040830152613eb681846131a1565b9050949350505050565b6000602082019050613ed5600083018461316c565b92915050565b6000602082019050613ef0600083018461317b565b92915050565b6000604082019050613f0b600083018561317b565b613f186020830184613c58565b9392505050565b6000608082019050613f34600083018761317b565b613f416020830186613c58565b613f4e604083018561315d565b613f5b6060830184613c58565b95945050505050565b60006020820190508181036000830152613f7e81846131da565b905092915050565b60006020820190508181036000830152613f9f816132c4565b9050919050565b60006020820190508181036000830152613fbf8161332a565b9050919050565b60006020820190508181036000830152613fdf8161336a565b9050919050565b60006020820190508181036000830152613fff816133aa565b9050919050565b6000602082019050818103600083015261401f81613410565b9050919050565b6000602082019050818103600083015261403f81613490565b9050919050565b6000602082019050818103600083015261405f816135b6565b9050919050565b6000602082019050818103600083015261407f8161361c565b9050919050565b6000602082019050818103600083015261409f81613682565b9050919050565b600060208201905081810360008301526140bf816136e8565b9050919050565b600060208201905081810360008301526140df8161374e565b9050919050565b600060208201905081810360008301526140ff8161378e565b9050919050565b6000602082019050818103600083015261411f8161380e565b9050919050565b6000602082019050818103600083015261413f81613874565b9050919050565b6000602082019050818103600083015261415f816138da565b9050919050565b6000602082019050818103600083015261417f81613940565b9050919050565b6000602082019050818103600083015261419f81613a0c565b9050919050565b600060208201905081810360008301526141bf81613a4c565b9050919050565b600060208201905081810360008301526141df81613ab2565b9050919050565b600060208201905081810360008301526141ff81613b18565b9050919050565b600060208201905061421b6000830184613c58565b92915050565b60006040820190506142366000830185613c58565b6142436020830184613c58565b9392505050565b6000604051905081810181811067ffffffffffffffff8211171561427157614270614684565b5b8060405250919050565b600067ffffffffffffffff82111561429657614295614684565b5b601f19601f8301169050602081019050919050565b600067ffffffffffffffff8211156142c6576142c5614684565b5b601f19601f8301169050602081019050919050565b600081519050919050565b600081519050919050565b600082825260208201905092915050565b600082825260208201905092915050565b600081905092915050565b6000614329826144de565b9150614334836144de565b9250827fffffffffffffffffffffffffffffffffffffffffffffffffffffffffffffffff03821115614369576143686145f7565b5b828201905092915050565b600061437f826144e8565b915061438a836144e8565b92508260ff038211156143a05761439f6145f7565b5b828201905092915050565b60006143b6826144de565b91506143c1836144de565b9250826143d1576143d0614626565b5b828204905092915050565b60006143e7826144de565b91506143f2836144de565b9250817fffffffffffffffffffffffffffffffffffffffffffffffffffffffffffffffff048311821515161561442b5761442a6145f7565b5b828202905092915050565b6000614441826144de565b915061444c836144de565b92508282101561445f5761445e6145f7565b5b828203905092915050565b6000614475826144be565b9050919050565b60008115159050919050565b6000819050919050565b60007fffffffff0000000000000000000000000000000000000000000000000000000082169050919050565b600073ffffffffffffffffffffffffffffffffffffffff82169050919050565b6000819050919050565b600060ff82169050919050565b82818337600083830152505050565b60005b83811015614522578082015181840152602081019050614507565b83811115614531576000848401525b50505050565b6000600282049050600182168061454f57607f821691505b6020821081141561456357614562614655565b5b50919050565b6000614574826144de565b91507fffffffffffffffffffffffffffffffffffffffffffffffffffffffffffffffff8214156145a7576145a66145f7565b5b600182019050919050565b6000819050919050565b6000819050919050565b60006145d1826144de565b91506145dc836144de565b9250826145ec576145eb614626565b5b828206905092915050565b7f4e487b7100000000000000000000000000000000000000000000000000000000600052601160045260246000fd5b7f4e487b7100000000000000000000000000000000000000000000000000000000600052601260045260246000fd5b7f4e487b7100000000000000000000000000000000000000000000000000000000600052602260045260246000fd5b7f4e487b7100000000000000000000000000000000000000000000000000000000600052604160045260246000fd5b6000601f19601f8301169050919050565b6146cd8161446a565b81146146d857600080fd5b50565b6146e48161447c565b81146146ef57600080fd5b50565b6146fb81614488565b811461470657600080fd5b50565b61471281614492565b811461471d57600080fd5b50565b614729816144de565b811461473457600080fd5b5056fe4142434445464748494a4b4c4d4e4f505152535455565758595a6162636465666768696a6b6c6d6e6f707172737475767778797a303132333435363738392b2fa26469706673582212206e0eab66a8f56f0d46e528c4067db4dbc059982e343b7965543728ff16ef3aff64736f6c63430008000033",
  "immutableReferences": {
    "73": [
      {
        "length": 32,
        "start": 9462
      }
    ],
    "75": [
      {
        "length": 32,
        "start": 4475
      },
      {
        "length": 32,
        "start": 9522
      }
    ]
  },
  "source": "//SPDX-License-Identifier: UNLICENSED\r\npragma solidity ^0.8.0;\r\n\r\nimport \"@openzeppelin/contracts/token/ERC721/extensions/ERC721URIStorage.sol\";\r\nimport \"@chainlink/contracts/src/v0.8/VRFConsumerBase.sol\";\r\nimport \"base64-sol/base64.sol\";\r\n\r\ncontract RandomSVG is ERC721URIStorage, VRFConsumerBase{\r\n    bytes32 public keyHash;\r\n    uint256 fee;\r\n    uint256 public tokenCounter;\r\n\r\n    //SVG PARAMS\r\n    uint256 public maxNumberOfPaths;\r\n    uint256 public maxNumberOfPathCommands;\r\n    uint256 public size = 500;\r\n    string[] public pathCommands;\r\n    string[] public colors;\r\n    \r\n\r\n    mapping(bytes32 => address) public requestIdToSender;\r\n    mapping(bytes32 => uint256) public requestIdToTokenId;\r\n    mapping(uint256 => uint256) public tokenIdToRandomNumber;\r\n    event requestedRandomSVG(bytes32 indexed _requestId, uint256 indexed _tokenId);\r\n    event createdUnfinishedRandomSVG(uint256 indexed _tokenId, uint256 _randomNumber);\r\n    event createdRandomSVG(uint256 indexed _tokenId, string _tokenURI);\r\n\r\n    constructor(address _VRFCoordinator, address _LinkToken, bytes32 _keyHash, uint256 _fee) \r\n    VRFConsumerBase(_VRFCoordinator, _LinkToken) \r\n    ERC721(\"RandomSVG\", \"rsNFT\")\r\n    {\r\n        fee = _fee;\r\n        keyHash = _keyHash;\r\n        tokenCounter = 0;\r\n        maxNumberOfPaths = 10;\r\n        maxNumberOfPathCommands = 5;\r\n        pathCommands = [\"M\", \"L\"];\r\n        colors = [\"red\", \"blue\", \"green\", \"yellow\", \"black\", \"white\"];\r\n    }\r\n\r\n    function create() public returns (bytes32 _requestId){\r\n        _requestId = requestRandomness(keyHash, fee);\r\n        requestIdToSender[_requestId] = msg.sender;\r\n        uint256 tokenId = tokenCounter;\r\n        requestIdToTokenId[_requestId] = tokenId;\r\n        tokenCounter = tokenCounter + 1; \r\n        emit requestedRandomSVG(_requestId, tokenId);\r\n    }\r\n\r\n    function fulfillRandomness(bytes32 _requestId, uint256 _randomNumber) internal override{\r\n        address nftOwner = requestIdToSender[_requestId];\r\n        uint256 tokenId = requestIdToTokenId[_requestId];\r\n\r\n        _safeMint(nftOwner, tokenId);\r\n        tokenIdToRandomNumber[tokenId] = _randomNumber;\r\n        emit createdUnfinishedRandomSVG(tokenId, _randomNumber);\r\n    }\r\n\r\n    function finishMint(uint256 _tokenId) public {\r\n        require(bytes(tokenURI(_tokenId)).length <= 0, \"Token URI is already all set!\");\r\n        require(tokenCounter > _tokenId, \"TokenId has not been minted yet!\");\r\n        require(tokenIdToRandomNumber[_tokenId] > 0, \"Need to wait for chainlink VRF\");\r\n\r\n        uint256 randomNumber = tokenIdToRandomNumber[_tokenId];\r\n        \r\n        string memory svg = generateSVG(randomNumber);\r\n        string memory imageURI = svgToImageURI(svg);\r\n        string memory formattedTokenURI = formatTokenURI(imageURI);\r\n        _setTokenURI(_tokenId, formattedTokenURI);\r\n        emit createdRandomSVG(_tokenId, formattedTokenURI);\r\n    }\r\n\r\n    function generateSVG(uint256 _randomNumber) public view returns(string memory _finalSVG){\r\n        uint256 numPaths = (_randomNumber % maxNumberOfPaths) + 1;\r\n        _finalSVG = string(abi.encodePacked('<svg xmlns=\"http://www.w3.org/2000/svg\" height=\"', uint2str(size), '\" width=\"', uint2str(size), '\">'));\r\n\r\n        for(uint i = 0; i < numPaths; i++){\r\n            uint256 newRNG = uint256(keccak256(abi.encode(_randomNumber, i)));\r\n            string memory pathSvg = generatePath(newRNG);\r\n            _finalSVG = string(abi.encodePacked(_finalSVG, pathSvg));\r\n        }\r\n        _finalSVG = string(abi.encodePacked(_finalSVG, \"</svg>\"));\r\n    }\r\n\r\n\r\n    function generatePath(uint256 _randomNumber) public view returns(string memory _pathSvg){\r\n        uint256 numPathCommands = (_randomNumber % maxNumberOfPathCommands) + 1;\r\n        _pathSvg = \"<path d='\";\r\n        \r\n        for(uint i = 0; i < numPathCommands; i++){\r\n            uint256 newRNG = uint256(keccak256(abi.encode(_randomNumber, size + i)));\r\n            string memory pathCommand = generatePathCommand(newRNG);\r\n            _pathSvg = string(abi.encodePacked(_pathSvg, pathCommand));\r\n        }\r\n        string memory color = colors[_randomNumber % colors.length];\r\n        _pathSvg = string(abi.encodePacked(_pathSvg, \"' fill='transparent' stroke='\", color, \"'/>\"));\r\n        return _pathSvg;\r\n    }\r\n\r\n    function generatePathCommand(uint256 _randomNumber) public view returns(string memory _pathCommand){\r\n        _pathCommand = pathCommands[_randomNumber % pathCommands.length];\r\n        uint256 parameterOne = uint256(keccak256(abi.encode(_randomNumber, size * 2))) % size;\r\n        uint256 parameterTwo = uint256(keccak256(abi.encode(_randomNumber, size * 3))) % size;\r\n        _pathCommand = string(abi.encodePacked(_pathCommand, \" \",  uint2str(parameterOne), \" \", uint2str(parameterTwo)));\r\n\r\n    }\r\n\r\n\r\n    function svgToImageURI(string memory _svg) public pure returns (string memory){\r\n        string memory baseURL = \"data:image/svg+xml;base64,\";\r\n        string memory svgBase64Encoded = Base64.encode(bytes(string(abi.encodePacked(_svg))));\r\n        string memory imageURI = string(abi.encodePacked(baseURL, svgBase64Encoded));\r\n\r\n        return imageURI;\r\n    }\r\n\r\n    function formatTokenURI(string memory _imageURI) public pure returns (string memory){\r\n        string memory baseURL = \"data:application/json;base64,\";\r\n        return string(abi.encodePacked(\r\n            baseURL, \r\n            Base64.encode(\r\n                bytes(abi.encodePacked(\r\n                    '{\"name\": \"MorseNFT\",', \r\n                    '\"description\": \"Morse Code NFT\",', \r\n                    '\"attributes\": \"\",', \r\n                    '\"image\":', _imageURI, '}'\r\n                    )\r\n                ))\r\n            ));\r\n    }\r\n\r\n    function uint2str(uint _i) internal pure returns (string memory _uintAsString) {\r\n        if (_i == 0) {\r\n            return \"0\";\r\n        }\r\n        uint j = _i;\r\n        uint len;\r\n        while (j != 0) {\r\n            len++;\r\n            j /= 10;\r\n        }\r\n        bytes memory bstr = new bytes(len);\r\n        uint k = len;\r\n        while (_i != 0) {\r\n            k = k-1;\r\n            uint8 temp = (48 + uint8(_i - _i / 10 * 10));\r\n            bytes1 b1 = bytes1(temp);\r\n            bstr[k] = b1;\r\n            _i /= 10;\r\n        }\r\n        return string(bstr);\r\n    }\r\n\r\n}",
  "sourcePath": "C:\\Users\\alexc\\Desktop\\test NFT\\contracts\\RandomSVG.sol",
  "compiler": {
    "name": "solc",
    "version": "0.8.0+commit.c7dfd78e.Emscripten.clang"
  },
  "schemaVersion": "3.4.3",
  "updatedAt": "2021-11-12T15:03:11.480Z",
  "networkType": "ethereum",
  "devdoc": {
    "kind": "dev",
    "methods": {
      "approve(address,uint256)": {
        "details": "See {IERC721-approve}."
      },
      "balanceOf(address)": {
        "details": "See {IERC721-balanceOf}."
      },
      "getApproved(uint256)": {
        "details": "See {IERC721-getApproved}."
      },
      "isApprovedForAll(address,address)": {
        "details": "See {IERC721-isApprovedForAll}."
      },
      "name()": {
        "details": "See {IERC721Metadata-name}."
      },
      "ownerOf(uint256)": {
        "details": "See {IERC721-ownerOf}."
      },
      "safeTransferFrom(address,address,uint256)": {
        "details": "See {IERC721-safeTransferFrom}."
      },
      "safeTransferFrom(address,address,uint256,bytes)": {
        "details": "See {IERC721-safeTransferFrom}."
      },
      "setApprovalForAll(address,bool)": {
        "details": "See {IERC721-setApprovalForAll}."
      },
      "supportsInterface(bytes4)": {
        "details": "See {IERC165-supportsInterface}."
      },
      "symbol()": {
        "details": "See {IERC721Metadata-symbol}."
      },
      "tokenURI(uint256)": {
        "details": "See {IERC721Metadata-tokenURI}."
      },
      "transferFrom(address,address,uint256)": {
        "details": "See {IERC721-transferFrom}."
      }
    },
    "version": 1
  },
  "userdoc": {
    "kind": "user",
    "methods": {},
    "version": 1
  }
}