{
  "contractName": "TestNFT",
  "abi": [
    {
      "inputs": [],
      "stateMutability": "nonpayable",
      "type": "constructor"
    },
    {
      "anonymous": false,
      "inputs": [
        {
          "indexed": true,
          "internalType": "address",
          "name": "owner",
          "type": "address"
        },
        {
          "indexed": true,
          "internalType": "address",
          "name": "approved",
          "type": "address"
        },
        {
          "indexed": true,
          "internalType": "uint256",
          "name": "tokenId",
          "type": "uint256"
        }
      ],
      "name": "Approval",
      "type": "event"
    },
    {
      "anonymous": false,
      "inputs": [
        {
          "indexed": true,
          "internalType": "address",
          "name": "owner",
          "type": "address"
        },
        {
          "indexed": true,
          "internalType": "address",
          "name": "operator",
          "type": "address"
        },
        {
          "indexed": false,
          "internalType": "bool",
          "name": "approved",
          "type": "bool"
        }
      ],
      "name": "ApprovalForAll",
      "type": "event"
    },
    {
      "anonymous": false,
      "inputs": [
        {
          "indexed": true,
          "internalType": "uint256",
          "name": "tokenId",
          "type": "uint256"
        },
        {
          "indexed": false,
          "internalType": "string",
          "name": "tokenURI",
          "type": "string"
        }
      ],
      "name": "CreatedTESTNFT",
      "type": "event"
    },
    {
      "anonymous": false,
      "inputs": [
        {
          "indexed": true,
          "internalType": "address",
          "name": "from",
          "type": "address"
        },
        {
          "indexed": true,
          "internalType": "address",
          "name": "to",
          "type": "address"
        },
        {
          "indexed": true,
          "internalType": "uint256",
          "name": "tokenId",
          "type": "uint256"
        }
      ],
      "name": "Transfer",
      "type": "event"
    },
    {
      "inputs": [
        {
          "internalType": "address",
          "name": "to",
          "type": "address"
        },
        {
          "internalType": "uint256",
          "name": "tokenId",
          "type": "uint256"
        }
      ],
      "name": "approve",
      "outputs": [],
      "stateMutability": "nonpayable",
      "type": "function"
    },
    {
      "inputs": [
        {
          "internalType": "address",
          "name": "owner",
          "type": "address"
        }
      ],
      "name": "balanceOf",
      "outputs": [
        {
          "internalType": "uint256",
          "name": "",
          "type": "uint256"
        }
      ],
      "stateMutability": "view",
      "type": "function",
      "constant": true
    },
    {
      "inputs": [
        {
          "internalType": "uint256",
          "name": "tokenId",
          "type": "uint256"
        }
      ],
      "name": "getApproved",
      "outputs": [
        {
          "internalType": "address",
          "name": "",
          "type": "address"
        }
      ],
      "stateMutability": "view",
      "type": "function",
      "constant": true
    },
    {
      "inputs": [
        {
          "internalType": "address",
          "name": "owner",
          "type": "address"
        },
        {
          "internalType": "address",
          "name": "operator",
          "type": "address"
        }
      ],
      "name": "isApprovedForAll",
      "outputs": [
        {
          "internalType": "bool",
          "name": "",
          "type": "bool"
        }
      ],
      "stateMutability": "view",
      "type": "function",
      "constant": true
    },
    {
      "inputs": [],
      "name": "name",
      "outputs": [
        {
          "internalType": "string",
          "name": "",
          "type": "string"
        }
      ],
      "stateMutability": "view",
      "type": "function",
      "constant": true
    },
    {
      "inputs": [
        {
          "internalType": "uint256",
          "name": "tokenId",
          "type": "uint256"
        }
      ],
      "name": "ownerOf",
      "outputs": [
        {
          "internalType": "address",
          "name": "",
          "type": "address"
        }
      ],
      "stateMutability": "view",
      "type": "function",
      "constant": true
    },
    {
      "inputs": [
        {
          "internalType": "address",
          "name": "from",
          "type": "address"
        },
        {
          "internalType": "address",
          "name": "to",
          "type": "address"
        },
        {
          "internalType": "uint256",
          "name": "tokenId",
          "type": "uint256"
        }
      ],
      "name": "safeTransferFrom",
      "outputs": [],
      "stateMutability": "nonpayable",
      "type": "function"
    },
    {
      "inputs": [
        {
          "internalType": "address",
          "name": "from",
          "type": "address"
        },
        {
          "internalType": "address",
          "name": "to",
          "type": "address"
        },
        {
          "internalType": "uint256",
          "name": "tokenId",
          "type": "uint256"
        },
        {
          "internalType": "bytes",
          "name": "_data",
          "type": "bytes"
        }
      ],
      "name": "safeTransferFrom",
      "outputs": [],
      "stateMutability": "nonpayable",
      "type": "function"
    },
    {
      "inputs": [
        {
          "internalType": "address",
          "name": "operator",
          "type": "address"
        },
        {
          "internalType": "bool",
          "name": "approved",
          "type": "bool"
        }
      ],
      "name": "setApprovalForAll",
      "outputs": [],
      "stateMutability": "nonpayable",
      "type": "function"
    },
    {
      "inputs": [],
      "name": "symbol",
      "outputs": [
        {
          "internalType": "string",
          "name": "",
          "type": "string"
        }
      ],
      "stateMutability": "view",
      "type": "function",
      "constant": true
    },
    {
      "inputs": [
        {
          "internalType": "uint256",
          "name": "index",
          "type": "uint256"
        }
      ],
      "name": "tokenByIndex",
      "outputs": [
        {
          "internalType": "uint256",
          "name": "",
          "type": "uint256"
        }
      ],
      "stateMutability": "view",
      "type": "function",
      "constant": true
    },
    {
      "inputs": [],
      "name": "tokenCounter",
      "outputs": [
        {
          "internalType": "uint256",
          "name": "",
          "type": "uint256"
        }
      ],
      "stateMutability": "view",
      "type": "function",
      "constant": true
    },
    {
      "inputs": [
        {
          "internalType": "address",
          "name": "owner",
          "type": "address"
        },
        {
          "internalType": "uint256",
          "name": "index",
          "type": "uint256"
        }
      ],
      "name": "tokenOfOwnerByIndex",
      "outputs": [
        {
          "internalType": "uint256",
          "name": "",
          "type": "uint256"
        }
      ],
      "stateMutability": "view",
      "type": "function",
      "constant": true
    },
    {
      "inputs": [],
      "name": "totalSupply",
      "outputs": [
        {
          "internalType": "uint256",
          "name": "",
          "type": "uint256"
        }
      ],
      "stateMutability": "view",
      "type": "function",
      "constant": true
    },
    {
      "inputs": [
        {
          "internalType": "address",
          "name": "from",
          "type": "address"
        },
        {
          "internalType": "address",
          "name": "to",
          "type": "address"
        },
        {
          "internalType": "uint256",
          "name": "tokenId",
          "type": "uint256"
        }
      ],
      "name": "transferFrom",
      "outputs": [],
      "stateMutability": "nonpayable",
      "type": "function"
    },
    {
      "inputs": [
        {
          "internalType": "string",
          "name": "_svg",
          "type": "string"
        }
      ],
      "name": "createTest",
      "outputs": [
        {
          "internalType": "uint256",
          "name": "",
          "type": "uint256"
        }
      ],
      "stateMutability": "nonpayable",
      "type": "function"
    },
    {
      "inputs": [
        {
          "internalType": "string",
          "name": "_svg",
          "type": "string"
        }
      ],
      "name": "svgToImageURI",
      "outputs": [
        {
          "internalType": "string",
          "name": "",
          "type": "string"
        }
      ],
      "stateMutability": "pure",
      "type": "function",
      "constant": true
    },
    {
      "inputs": [
        {
          "internalType": "string",
          "name": "_imageURI",
          "type": "string"
        }
      ],
      "name": "formatTokenURI",
      "outputs": [
        {
          "internalType": "string",
          "name": "",
          "type": "string"
        }
      ],
      "stateMutability": "pure",
      "type": "function",
      "constant": true
    },
    {
      "inputs": [
        {
          "internalType": "uint256",
          "name": "tokenId",
          "type": "uint256"
        }
      ],
      "name": "tokenURI",
      "outputs": [
        {
          "internalType": "string",
          "name": "",
          "type": "string"
        }
      ],
      "stateMutability": "view",
      "type": "function",
      "constant": true
    },
    {
      "inputs": [
        {
          "internalType": "bytes4",
          "name": "interfaceId",
          "type": "bytes4"
        }
      ],
      "name": "supportsInterface",
      "outputs": [
        {
          "internalType": "bool",
          "name": "",
          "type": "bool"
        }
      ],
      "stateMutability": "view",
      "type": "function",
      "constant": true
    }
  ],
  "bytecode": "0x60806040523480156200001157600080fd5b506040518060400160405280600681526020017f54657374696500000000000000000000000000000000000000000000000000008152506040518060400160405280600481526020017f5445535400000000000000000000000000000000000000000000000000000000815250816000908051906020019062000096929190620000c0565b508060019080519060200190620000af929190620000c0565b5050506000600b81905550620001d5565b828054620000ce9062000170565b90600052602060002090601f016020900481019282620000f257600085556200013e565b82601f106200010d57805160ff19168380011785556200013e565b828001600101855582156200013e579182015b828111156200013d57825182559160200191906001019062000120565b5b5090506200014d919062000151565b5090565b5b808211156200016c57600081600090555060010162000152565b5090565b600060028204905060018216806200018957607f821691505b60208210811415620001a0576200019f620001a6565b5b50919050565b7f4e487b7100000000000000000000000000000000000000000000000000000000600052602260045260246000fd5b6138f680620001e56000396000f3fe608060405234801561001057600080fd5b506004361061012c5760003560e01c80636352211e116100ad578063b88d4fde11610071578063b88d4fde1461037b578063c0c442d014610397578063c87b56dd146103c7578063d082e381146103f7578063e985e9c5146104155761012c565b80636352211e146102b157806370a08231146102e157806371aee1931461031157806395d89b4114610341578063a22cb4651461035f5761012c565b806323b872dd116100f457806323b872dd146101e95780632f745c591461020557806330d871c61461023557806342842e0e146102655780634f6ccce7146102815761012c565b806301ffc9a71461013157806306fdde0314610161578063081812fc1461017f578063095ea7b3146101af57806318160ddd146101cb575b600080fd5b61014b600480360381019061014691906126fe565b610445565b6040516101589190613174565b60405180910390f35b610169610457565b604051610176919061318f565b60405180910390f35b61019960048036038101906101949190612791565b6104e9565b6040516101a6919061310d565b60405180910390f35b6101c960048036038101906101c491906126c2565b61056e565b005b6101d3610686565b6040516101e091906133f1565b60405180910390f35b61020360048036038101906101fe91906125bc565b610693565b005b61021f600480360381019061021a91906126c2565b6106f3565b60405161022c91906133f1565b60405180910390f35b61024f600480360381019061024a9190612750565b610798565b60405161025c919061318f565b60405180910390f35b61027f600480360381019061027a91906125bc565b610831565b005b61029b60048036038101906102969190612791565b610851565b6040516102a891906133f1565b60405180910390f35b6102cb60048036038101906102c69190612791565b6108e8565b6040516102d8919061310d565b60405180910390f35b6102fb60048036038101906102f69190612557565b61099a565b60405161030891906133f1565b60405180910390f35b61032b60048036038101906103269190612750565b610a52565b604051610338919061318f565b60405180910390f35b610349610adf565b604051610356919061318f565b60405180910390f35b61037960048036038101906103749190612686565b610b71565b005b6103956004803603810190610390919061260b565b610cf2565b005b6103b160048036038101906103ac9190612750565b610d54565b6040516103be91906133f1565b60405180910390f35b6103e160048036038101906103dc9190612791565b610de4565b6040516103ee919061318f565b60405180910390f35b6103ff610df6565b60405161040c91906133f1565b60405180910390f35b61042f600480360381019061042a9190612580565b610dfc565b60405161043c9190613174565b60405180910390f35b600061045082610e90565b9050919050565b606060008054610466906136ab565b80601f0160208091040260200160405190810160405280929190818152602001828054610492906136ab565b80156104df5780601f106104b4576101008083540402835291602001916104df565b820191906000526020600020905b8154815290600101906020018083116104c257829003601f168201915b5050505050905090565b60006104f482610f0a565b610533576040517f08c379a000000000000000000000000000000000000000000000000000000000815260040161052a90613331565b60405180910390fd5b6004600083815260200190815260200160002060009054906101000a900473ffffffffffffffffffffffffffffffffffffffff169050919050565b6000610579826108e8565b90508073ffffffffffffffffffffffffffffffffffffffff168373ffffffffffffffffffffffffffffffffffffffff1614156105ea576040517f08c379a00000000000000000000000000000000000000000000000000000000081526004016105e190613391565b60405180910390fd5b8073ffffffffffffffffffffffffffffffffffffffff16610609610f76565b73ffffffffffffffffffffffffffffffffffffffff161480610638575061063781610632610f76565b610dfc565b5b610677576040517f08c379a000000000000000000000000000000000000000000000000000000000815260040161066e90613271565b60405180910390fd5b6106818383610f7e565b505050565b6000600880549050905090565b6106a461069e610f76565b82611037565b6106e3576040517f08c379a00000000000000000000000000000000000000000000000000000000081526004016106da906133b1565b60405180910390fd5b6106ee838383611115565b505050565b60006106fe8361099a565b821061073f576040517f08c379a0000000000000000000000000000000000000000000000000000000008152600401610736906131b1565b60405180910390fd5b600660008473ffffffffffffffffffffffffffffffffffffffff1673ffffffffffffffffffffffffffffffffffffffff168152602001908152602001600020600083815260200190815260200160002054905092915050565b606060006040518060400160405280601a81526020017f646174613a696d6167652f7376672b786d6c3b6261736536342c000000000000815250905060006107fe846040516020016107ea9190613084565b604051602081830303815290604052611371565b90506000828260405160200161081592919061309b565b6040516020818303038152906040529050809350505050919050565b61084c83838360405180602001604052806000815250610cf2565b505050565b600061085b610686565b821061089c576040517f08c379a0000000000000000000000000000000000000000000000000000000008152600401610893906133d1565b60405180910390fd5b600882815481106108d6577f4e487b7100000000000000000000000000000000000000000000000000000000600052603260045260246000fd5b90600052602060002001549050919050565b6000806002600084815260200190815260200160002060009054906101000a900473ffffffffffffffffffffffffffffffffffffffff169050600073ffffffffffffffffffffffffffffffffffffffff168173ffffffffffffffffffffffffffffffffffffffff161415610991576040517f08c379a0000000000000000000000000000000000000000000000000000000008152600401610988906132b1565b60405180910390fd5b80915050919050565b60008073ffffffffffffffffffffffffffffffffffffffff168273ffffffffffffffffffffffffffffffffffffffff161415610a0b576040517f08c379a0000000000000000000000000000000000000000000000000000000008152600401610a0290613291565b60405180910390fd5b600360008373ffffffffffffffffffffffffffffffffffffffff1673ffffffffffffffffffffffffffffffffffffffff168152602001908152602001600020549050919050565b606060006040518060400160405280601d81526020017f646174613a6170706c69636174696f6e2f6a736f6e3b6261736536342c000000815250905080610ab784604051602001610aa391906130bf565b604051602081830303815290604052611371565b604051602001610ac892919061309b565b604051602081830303815290604052915050919050565b606060018054610aee906136ab565b80601f0160208091040260200160405190810160405280929190818152602001828054610b1a906136ab565b8015610b675780601f10610b3c57610100808354040283529160200191610b67565b820191906000526020600020905b815481529060010190602001808311610b4a57829003601f168201915b5050505050905090565b610b79610f76565b73ffffffffffffffffffffffffffffffffffffffff168273ffffffffffffffffffffffffffffffffffffffff161415610be7576040517f08c379a0000000000000000000000000000000000000000000000000000000008152600401610bde90613231565b60405180910390fd5b8060056000610bf4610f76565b73ffffffffffffffffffffffffffffffffffffffff1673ffffffffffffffffffffffffffffffffffffffff16815260200190815260200160002060008473ffffffffffffffffffffffffffffffffffffffff1673ffffffffffffffffffffffffffffffffffffffff16815260200190815260200160002060006101000a81548160ff0219169083151502179055508173ffffffffffffffffffffffffffffffffffffffff16610ca1610f76565b73ffffffffffffffffffffffffffffffffffffffff167f17307eab39ab6107e8899845ad3d59bd9653f200f220920489ca2b5937696c3183604051610ce69190613174565b60405180910390a35050565b610d03610cfd610f76565b83611037565b610d42576040517f08c379a0000000000000000000000000000000000000000000000000000000008152600401610d39906133b1565b60405180910390fd5b610d4e84848484611510565b50505050565b600080600b549050610d66338261156c565b6000610d7184610798565b90506000610d7e82610a52565b9050610d8a838261158a565b600b547f6815a38cab9b642e49d73babb27c2c63cc0b15f7613b9de0168e502256520a7082604051610dbc919061318f565b60405180910390a26001600b54610dd391906134e0565b600b81905550829350505050919050565b6060610def826115fe565b9050919050565b600b5481565b6000600560008473ffffffffffffffffffffffffffffffffffffffff1673ffffffffffffffffffffffffffffffffffffffff16815260200190815260200160002060008373ffffffffffffffffffffffffffffffffffffffff1673ffffffffffffffffffffffffffffffffffffffff16815260200190815260200160002060009054906101000a900460ff16905092915050565b60007f780e9d63000000000000000000000000000000000000000000000000000000007bffffffffffffffffffffffffffffffffffffffffffffffffffffffff1916827bffffffffffffffffffffffffffffffffffffffffffffffffffffffff19161480610f035750610f0282611750565b5b9050919050565b60008073ffffffffffffffffffffffffffffffffffffffff166002600084815260200190815260200160002060009054906101000a900473ffffffffffffffffffffffffffffffffffffffff1673ffffffffffffffffffffffffffffffffffffffff1614159050919050565b600033905090565b816004600083815260200190815260200160002060006101000a81548173ffffffffffffffffffffffffffffffffffffffff021916908373ffffffffffffffffffffffffffffffffffffffff160217905550808273ffffffffffffffffffffffffffffffffffffffff16610ff1836108e8565b73ffffffffffffffffffffffffffffffffffffffff167f8c5be1e5ebec7d5bd14f71427d1e84f3dd0314c0f7b2291e5b200ac8c7c3b92560405160405180910390a45050565b600061104282610f0a565b611081576040517f08c379a000000000000000000000000000000000000000000000000000000000815260040161107890613251565b60405180910390fd5b600061108c836108e8565b90508073ffffffffffffffffffffffffffffffffffffffff168473ffffffffffffffffffffffffffffffffffffffff1614806110fb57508373ffffffffffffffffffffffffffffffffffffffff166110e3846104e9565b73ffffffffffffffffffffffffffffffffffffffff16145b8061110c575061110b8185610dfc565b5b91505092915050565b8273ffffffffffffffffffffffffffffffffffffffff16611135826108e8565b73ffffffffffffffffffffffffffffffffffffffff161461118b576040517f08c379a000000000000000000000000000000000000000000000000000000000815260040161118290613351565b60405180910390fd5b600073ffffffffffffffffffffffffffffffffffffffff168273ffffffffffffffffffffffffffffffffffffffff1614156111fb576040517f08c379a00000000000000000000000000000000000000000000000000000000081526004016111f290613211565b60405180910390fd5b611206838383611832565b611211600082610f7e565b6001600360008573ffffffffffffffffffffffffffffffffffffffff1673ffffffffffffffffffffffffffffffffffffffff168152602001908152602001600020600082825461126191906135c1565b925050819055506001600360008473ffffffffffffffffffffffffffffffffffffffff1673ffffffffffffffffffffffffffffffffffffffff16815260200190815260200160002060008282546112b891906134e0565b92505081905550816002600083815260200190815260200160002060006101000a81548173ffffffffffffffffffffffffffffffffffffffff021916908373ffffffffffffffffffffffffffffffffffffffff160217905550808273ffffffffffffffffffffffffffffffffffffffff168473ffffffffffffffffffffffffffffffffffffffff167fddf252ad1be2c89b69c2b068fc378daa952ba7f163c4a11628f55a4df523b3ef60405160405180910390a4505050565b60606000825114156113945760405180602001604052806000815250905061150b565b600060405180606001604052806040815260200161388160409139905060006003600285516113c391906134e0565b6113cd9190613536565b60046113d99190613567565b905060006020826113ea91906134e0565b67ffffffffffffffff811115611429577f4e487b7100000000000000000000000000000000000000000000000000000000600052604160045260246000fd5b6040519080825280601f01601f19166020018201604052801561145b5781602001600182028036833780820191505090505b509050818152600183018586518101602084015b818310156114ca576003830192508251603f8160121c168501518253600182019150603f81600c1c168501518253600182019150603f8160061c168501518253600182019150603f811685015182536001820191505061146f565b6003895106600181146114e457600281146114f4576114ff565b613d3d60f01b60028303526114ff565b603d60f81b60018303525b50505050508093505050505b919050565b61151b848484611115565b61152784848484611842565b611566576040517f08c379a000000000000000000000000000000000000000000000000000000000815260040161155d906131d1565b60405180910390fd5b50505050565b6115868282604051806020016040528060008152506119d9565b5050565b61159382610f0a565b6115d2576040517f08c379a00000000000000000000000000000000000000000000000000000000081526004016115c9906132d1565b60405180910390fd5b80600a600084815260200190815260200160002090805190602001906115f992919061237b565b505050565b606061160982610f0a565b611648576040517f08c379a000000000000000000000000000000000000000000000000000000000815260040161163f90613311565b60405180910390fd5b6000600a60008481526020019081526020016000208054611668906136ab565b80601f0160208091040260200160405190810160405280929190818152602001828054611694906136ab565b80156116e15780601f106116b6576101008083540402835291602001916116e1565b820191906000526020600020905b8154815290600101906020018083116116c457829003601f168201915b5050505050905060006116f2611a34565b905060008151141561170857819250505061174b565b60008251111561173d57808260405160200161172592919061309b565b6040516020818303038152906040529250505061174b565b61174684611a4b565b925050505b919050565b60007f80ac58cd000000000000000000000000000000000000000000000000000000007bffffffffffffffffffffffffffffffffffffffffffffffffffffffff1916827bffffffffffffffffffffffffffffffffffffffffffffffffffffffff1916148061181b57507f5b5e139f000000000000000000000000000000000000000000000000000000007bffffffffffffffffffffffffffffffffffffffffffffffffffffffff1916827bffffffffffffffffffffffffffffffffffffffffffffffffffffffff1916145b8061182b575061182a82611af2565b5b9050919050565b61183d838383611b5c565b505050565b60006118638473ffffffffffffffffffffffffffffffffffffffff16611c70565b156119cc578373ffffffffffffffffffffffffffffffffffffffff1663150b7a0261188c610f76565b8786866040518563ffffffff1660e01b81526004016118ae9493929190613128565b602060405180830381600087803b1580156118c857600080fd5b505af19250505080156118f957506040513d601f19601f820116820180604052508101906118f69190612727565b60015b61197c573d8060008114611929576040519150601f19603f3d011682016040523d82523d6000602084013e61192e565b606091505b50600081511415611974576040517f08c379a000000000000000000000000000000000000000000000000000000000815260040161196b906131d1565b60405180910390fd5b805181602001fd5b63150b7a0260e01b7bffffffffffffffffffffffffffffffffffffffffffffffffffffffff1916817bffffffffffffffffffffffffffffffffffffffffffffffffffffffff1916149150506119d1565b600190505b949350505050565b6119e38383611c83565b6119f06000848484611842565b611a2f576040517f08c379a0000000000000000000000000000000000000000000000000000000008152600401611a26906131d1565b60405180910390fd5b505050565b606060405180602001604052806000815250905090565b6060611a5682610f0a565b611a95576040517f08c379a0000000000000000000000000000000000000000000000000000000008152600401611a8c90613371565b60405180910390fd5b6000611a9f611a34565b90506000815111611abf5760405180602001604052806000815250611aea565b80611ac984611e51565b604051602001611ada92919061309b565b6040516020818303038152906040525b915050919050565b60007f01ffc9a7000000000000000000000000000000000000000000000000000000007bffffffffffffffffffffffffffffffffffffffffffffffffffffffff1916827bffffffffffffffffffffffffffffffffffffffffffffffffffffffff1916149050919050565b611b67838383611ffe565b600073ffffffffffffffffffffffffffffffffffffffff168373ffffffffffffffffffffffffffffffffffffffff161415611baa57611ba581612003565b611be9565b8173ffffffffffffffffffffffffffffffffffffffff168373ffffffffffffffffffffffffffffffffffffffff1614611be857611be7838261204c565b5b5b600073ffffffffffffffffffffffffffffffffffffffff168273ffffffffffffffffffffffffffffffffffffffff161415611c2c57611c27816121b9565b611c6b565b8273ffffffffffffffffffffffffffffffffffffffff168273ffffffffffffffffffffffffffffffffffffffff1614611c6a57611c6982826122fc565b5b5b505050565b600080823b905060008111915050919050565b600073ffffffffffffffffffffffffffffffffffffffff168273ffffffffffffffffffffffffffffffffffffffff161415611cf3576040517f08c379a0000000000000000000000000000000000000000000000000000000008152600401611cea906132f1565b60405180910390fd5b611cfc81610f0a565b15611d3c576040517f08c379a0000000000000000000000000000000000000000000000000000000008152600401611d33906131f1565b60405180910390fd5b611d4860008383611832565b6001600360008473ffffffffffffffffffffffffffffffffffffffff1673ffffffffffffffffffffffffffffffffffffffff1681526020019081526020016000206000828254611d9891906134e0565b92505081905550816002600083815260200190815260200160002060006101000a81548173ffffffffffffffffffffffffffffffffffffffff021916908373ffffffffffffffffffffffffffffffffffffffff160217905550808273ffffffffffffffffffffffffffffffffffffffff16600073ffffffffffffffffffffffffffffffffffffffff167fddf252ad1be2c89b69c2b068fc378daa952ba7f163c4a11628f55a4df523b3ef60405160405180910390a45050565b60606000821415611e99576040518060400160405280600181526020017f30000000000000000000000000000000000000000000000000000000000000008152509050611ff9565b600082905060005b60008214611ecb578080611eb4906136dd565b915050600a82611ec49190613536565b9150611ea1565b60008167ffffffffffffffff811115611f0d577f4e487b7100000000000000000000000000000000000000000000000000000000600052604160045260246000fd5b6040519080825280601f01601f191660200182016040528015611f3f5781602001600182028036833780820191505090505b5090505b60008514611ff257600182611f5891906135c1565b9150600a85611f679190613726565b6030611f7391906134e0565b60f81b818381518110611faf577f4e487b7100000000000000000000000000000000000000000000000000000000600052603260045260246000fd5b60200101907effffffffffffffffffffffffffffffffffffffffffffffffffffffffffffff1916908160001a905350600a85611feb9190613536565b9450611f43565b8093505050505b919050565b505050565b6008805490506009600083815260200190815260200160002081905550600881908060018154018082558091505060019003906000526020600020016000909190919091505550565b600060016120598461099a565b61206391906135c1565b9050600060076000848152602001908152602001600020549050818114612148576000600660008673ffffffffffffffffffffffffffffffffffffffff1673ffffffffffffffffffffffffffffffffffffffff168152602001908152602001600020600084815260200190815260200160002054905080600660008773ffffffffffffffffffffffffffffffffffffffff1673ffffffffffffffffffffffffffffffffffffffff168152602001908152602001600020600084815260200190815260200160002081905550816007600083815260200190815260200160002081905550505b6007600084815260200190815260200160002060009055600660008573ffffffffffffffffffffffffffffffffffffffff1673ffffffffffffffffffffffffffffffffffffffff16815260200190815260200160002060008381526020019081526020016000206000905550505050565b600060016008805490506121cd91906135c1565b9050600060096000848152602001908152602001600020549050600060088381548110612223577f4e487b7100000000000000000000000000000000000000000000000000000000600052603260045260246000fd5b90600052602060002001549050806008838154811061226b577f4e487b7100000000000000000000000000000000000000000000000000000000600052603260045260246000fd5b9060005260206000200181905550816009600083815260200190815260200160002081905550600960008581526020019081526020016000206000905560088054806122e0577f4e487b7100000000000000000000000000000000000000000000000000000000600052603160045260246000fd5b6001900381819060005260206000200160009055905550505050565b60006123078361099a565b905081600660008573ffffffffffffffffffffffffffffffffffffffff1673ffffffffffffffffffffffffffffffffffffffff168152602001908152602001600020600083815260200190815260200160002081905550806007600084815260200190815260200160002081905550505050565b828054612387906136ab565b90600052602060002090601f0160209004810192826123a957600085556123f0565b82601f106123c257805160ff19168380011785556123f0565b828001600101855582156123f0579182015b828111156123ef5782518255916020019190600101906123d4565b5b5090506123fd9190612401565b5090565b5b8082111561241a576000816000905550600101612402565b5090565b600061243161242c8461343d565b61340c565b90508281526020810184848401111561244957600080fd5b612454848285613669565b509392505050565b600061246f61246a8461346d565b61340c565b90508281526020810184848401111561248757600080fd5b612492848285613669565b509392505050565b6000813590506124a981613824565b92915050565b6000813590506124be8161383b565b92915050565b6000813590506124d381613852565b92915050565b6000815190506124e881613852565b92915050565b600082601f8301126124ff57600080fd5b813561250f84826020860161241e565b91505092915050565b600082601f83011261252957600080fd5b813561253984826020860161245c565b91505092915050565b60008135905061255181613869565b92915050565b60006020828403121561256957600080fd5b60006125778482850161249a565b91505092915050565b6000806040838503121561259357600080fd5b60006125a18582860161249a565b92505060206125b28582860161249a565b9150509250929050565b6000806000606084860312156125d157600080fd5b60006125df8682870161249a565b93505060206125f08682870161249a565b925050604061260186828701612542565b9150509250925092565b6000806000806080858703121561262157600080fd5b600061262f8782880161249a565b94505060206126408782880161249a565b935050604061265187828801612542565b925050606085013567ffffffffffffffff81111561266e57600080fd5b61267a878288016124ee565b91505092959194509250565b6000806040838503121561269957600080fd5b60006126a78582860161249a565b92505060206126b8858286016124af565b9150509250929050565b600080604083850312156126d557600080fd5b60006126e38582860161249a565b92505060206126f485828601612542565b9150509250929050565b60006020828403121561271057600080fd5b600061271e848285016124c4565b91505092915050565b60006020828403121561273957600080fd5b6000612747848285016124d9565b91505092915050565b60006020828403121561276257600080fd5b600082013567ffffffffffffffff81111561277c57600080fd5b61278884828501612518565b91505092915050565b6000602082840312156127a357600080fd5b60006127b184828501612542565b91505092915050565b6127c3816135f5565b82525050565b6127d281613607565b82525050565b60006127e38261349d565b6127ed81856134b3565b93506127fd818560208601613678565b61280681613813565b840191505092915050565b600061281c826134a8565b61282681856134c4565b9350612836818560208601613678565b61283f81613813565b840191505092915050565b6000612855826134a8565b61285f81856134d5565b935061286f818560208601613678565b80840191505092915050565b60006128886008836134d5565b91507f22696d616765223a0000000000000000000000000000000000000000000000006000830152600882019050919050565b60006128c86014836134d5565b91507f7b226e616d65223a20224d6f7273654e4654222c0000000000000000000000006000830152601482019050919050565b6000612908602b836134c4565b91507f455243373231456e756d657261626c653a206f776e657220696e646578206f7560008301527f74206f6620626f756e64730000000000000000000000000000000000000000006020830152604082019050919050565b600061296e6032836134c4565b91507f4552433732313a207472616e7366657220746f206e6f6e20455243373231526560008301527f63656976657220696d706c656d656e74657200000000000000000000000000006020830152604082019050919050565b60006129d4601c836134c4565b91507f4552433732313a20746f6b656e20616c7265616479206d696e746564000000006000830152602082019050919050565b6000612a146024836134c4565b91507f4552433732313a207472616e7366657220746f20746865207a65726f2061646460008301527f72657373000000000000000000000000000000000000000000000000000000006020830152604082019050919050565b6000612a7a6019836134c4565b91507f4552433732313a20617070726f766520746f2063616c6c6572000000000000006000830152602082019050919050565b6000612aba6020836134d5565b91507f226465736372697074696f6e223a20224d6f72736520436f6465204e4654222c6000830152602082019050919050565b6000612afa602c836134c4565b91507f4552433732313a206f70657261746f7220717565727920666f72206e6f6e657860008301527f697374656e7420746f6b656e00000000000000000000000000000000000000006020830152604082019050919050565b6000612b606038836134c4565b91507f4552433732313a20617070726f76652063616c6c6572206973206e6f74206f7760008301527f6e6572206e6f7220617070726f76656420666f7220616c6c00000000000000006020830152604082019050919050565b6000612bc6602a836134c4565b91507f4552433732313a2062616c616e636520717565727920666f7220746865207a6560008301527f726f2061646472657373000000000000000000000000000000000000000000006020830152604082019050919050565b6000612c2c6029836134c4565b91507f4552433732313a206f776e657220717565727920666f72206e6f6e657869737460008301527f656e7420746f6b656e00000000000000000000000000000000000000000000006020830152604082019050919050565b6000612c92602e836134c4565b91507f45524337323155524953746f726167653a2055524920736574206f66206e6f6e60008301527f6578697374656e7420746f6b656e0000000000000000000000000000000000006020830152604082019050919050565b6000612cf86020836134c4565b91507f4552433732313a206d696e7420746f20746865207a65726f20616464726573736000830152602082019050919050565b6000612d386001836134d5565b91507f7d000000000000000000000000000000000000000000000000000000000000006000830152600182019050919050565b6000612d786031836134c4565b91507f45524337323155524953746f726167653a2055524920717565727920666f722060008301527f6e6f6e6578697374656e7420746f6b656e0000000000000000000000000000006020830152604082019050919050565b6000612dde602c836134c4565b91507f4552433732313a20617070726f76656420717565727920666f72206e6f6e657860008301527f697374656e7420746f6b656e00000000000000000000000000000000000000006020830152604082019050919050565b6000612e446029836134c4565b91507f4552433732313a207472616e73666572206f6620746f6b656e2074686174206960008301527f73206e6f74206f776e00000000000000000000000000000000000000000000006020830152604082019050919050565b6000612eaa602f836134c4565b91507f4552433732314d657461646174613a2055524920717565727920666f72206e6f60008301527f6e6578697374656e7420746f6b656e00000000000000000000000000000000006020830152604082019050919050565b6000612f106021836134c4565b91507f4552433732313a20617070726f76616c20746f2063757272656e74206f776e6560008301527f72000000000000000000000000000000000000000000000000000000000000006020830152604082019050919050565b6000612f766031836134c4565b91507f4552433732313a207472616e736665722063616c6c6572206973206e6f74206f60008301527f776e6572206e6f7220617070726f7665640000000000000000000000000000006020830152604082019050919050565b6000612fdc602c836134c4565b91507f455243373231456e756d657261626c653a20676c6f62616c20696e646578206f60008301527f7574206f6620626f756e647300000000000000000000000000000000000000006020830152604082019050919050565b60006130426011836134d5565b91507f2261747472696275746573223a2022222c0000000000000000000000000000006000830152601182019050919050565b61307e8161365f565b82525050565b6000613090828461284a565b915081905092915050565b60006130a7828561284a565b91506130b3828461284a565b91508190509392505050565b60006130ca826128bb565b91506130d582612aad565b91506130e082613035565b91506130eb8261287b565b91506130f7828461284a565b915061310282612d2b565b915081905092915050565b600060208201905061312260008301846127ba565b92915050565b600060808201905061313d60008301876127ba565b61314a60208301866127ba565b6131576040830185613075565b818103606083015261316981846127d8565b905095945050505050565b600060208201905061318960008301846127c9565b92915050565b600060208201905081810360008301526131a98184612811565b905092915050565b600060208201905081810360008301526131ca816128fb565b9050919050565b600060208201905081810360008301526131ea81612961565b9050919050565b6000602082019050818103600083015261320a816129c7565b9050919050565b6000602082019050818103600083015261322a81612a07565b9050919050565b6000602082019050818103600083015261324a81612a6d565b9050919050565b6000602082019050818103600083015261326a81612aed565b9050919050565b6000602082019050818103600083015261328a81612b53565b9050919050565b600060208201905081810360008301526132aa81612bb9565b9050919050565b600060208201905081810360008301526132ca81612c1f565b9050919050565b600060208201905081810360008301526132ea81612c85565b9050919050565b6000602082019050818103600083015261330a81612ceb565b9050919050565b6000602082019050818103600083015261332a81612d6b565b9050919050565b6000602082019050818103600083015261334a81612dd1565b9050919050565b6000602082019050818103600083015261336a81612e37565b9050919050565b6000602082019050818103600083015261338a81612e9d565b9050919050565b600060208201905081810360008301526133aa81612f03565b9050919050565b600060208201905081810360008301526133ca81612f69565b9050919050565b600060208201905081810360008301526133ea81612fcf565b9050919050565b60006020820190506134066000830184613075565b92915050565b6000604051905081810181811067ffffffffffffffff82111715613433576134326137e4565b5b8060405250919050565b600067ffffffffffffffff821115613458576134576137e4565b5b601f19601f8301169050602081019050919050565b600067ffffffffffffffff821115613488576134876137e4565b5b601f19601f8301169050602081019050919050565b600081519050919050565b600081519050919050565b600082825260208201905092915050565b600082825260208201905092915050565b600081905092915050565b60006134eb8261365f565b91506134f68361365f565b9250827fffffffffffffffffffffffffffffffffffffffffffffffffffffffffffffffff0382111561352b5761352a613757565b5b828201905092915050565b60006135418261365f565b915061354c8361365f565b92508261355c5761355b613786565b5b828204905092915050565b60006135728261365f565b915061357d8361365f565b9250817fffffffffffffffffffffffffffffffffffffffffffffffffffffffffffffffff04831182151516156135b6576135b5613757565b5b828202905092915050565b60006135cc8261365f565b91506135d78361365f565b9250828210156135ea576135e9613757565b5b828203905092915050565b60006136008261363f565b9050919050565b60008115159050919050565b60007fffffffff0000000000000000000000000000000000000000000000000000000082169050919050565b600073ffffffffffffffffffffffffffffffffffffffff82169050919050565b6000819050919050565b82818337600083830152505050565b60005b8381101561369657808201518184015260208101905061367b565b838111156136a5576000848401525b50505050565b600060028204905060018216806136c357607f821691505b602082108114156136d7576136d66137b5565b5b50919050565b60006136e88261365f565b91507fffffffffffffffffffffffffffffffffffffffffffffffffffffffffffffffff82141561371b5761371a613757565b5b600182019050919050565b60006137318261365f565b915061373c8361365f565b92508261374c5761374b613786565b5b828206905092915050565b7f4e487b7100000000000000000000000000000000000000000000000000000000600052601160045260246000fd5b7f4e487b7100000000000000000000000000000000000000000000000000000000600052601260045260246000fd5b7f4e487b7100000000000000000000000000000000000000000000000000000000600052602260045260246000fd5b7f4e487b7100000000000000000000000000000000000000000000000000000000600052604160045260246000fd5b6000601f19601f8301169050919050565b61382d816135f5565b811461383857600080fd5b50565b61384481613607565b811461384f57600080fd5b50565b61385b81613613565b811461386657600080fd5b50565b6138728161365f565b811461387d57600080fd5b5056fe4142434445464748494a4b4c4d4e4f505152535455565758595a6162636465666768696a6b6c6d6e6f707172737475767778797a303132333435363738392b2fa26469706673582212208ccbdaa173752c2262fcd6a1067ab2457829188235ed496d48d4a3be2cb0f0b464736f6c63430008000033",
  "immutableReferences": {},
  "source": "pragma solidity ^0.8.0;\r\nimport \"@openzeppelin/contracts/token/ERC721/extensions/ERC721URIStorage.sol\";\r\nimport \"@openzeppelin/contracts/token/ERC721/extensions/ERC721Enumerable.sol\";\r\nimport \"base64-sol/base64.sol\";\r\n//SPDX-License-Identifier: UNLICENSED\r\ncontract TestNFT is ERC721Enumerable, ERC721URIStorage{\r\n    uint256 public tokenCounter;\r\n    event CreatedTESTNFT(uint256 indexed tokenId, string tokenURI);\r\n    constructor () ERC721(\"Testie\", \"TEST\"){\r\n        tokenCounter = 0;\r\n    }\r\n\r\n    function createTest(string memory _svg) public returns (uint256){\r\n        uint256 newItemId = tokenCounter;\r\n        _safeMint(msg.sender, newItemId);\r\n        string memory imageURI = svgToImageURI(_svg);\r\n        string memory formattedTokenURI = formatTokenURI(imageURI);\r\n        _setTokenURI(newItemId, formattedTokenURI);\r\n        emit CreatedTESTNFT(tokenCounter, formattedTokenURI);\r\n        tokenCounter = tokenCounter + 1;\r\n        return newItemId;\r\n    }\r\n\r\n    function svgToImageURI(string memory _svg) public pure returns (string memory){\r\n        string memory baseURL = \"data:image/svg+xml;base64,\";\r\n        string memory svgBase64Encoded = Base64.encode(bytes(string(abi.encodePacked(_svg))));\r\n        string memory imageURI = string(abi.encodePacked(baseURL, svgBase64Encoded));\r\n\r\n        return imageURI;\r\n    }\r\n\r\n    function formatTokenURI(string memory _imageURI) public pure returns (string memory){\r\n        string memory baseURL = \"data:application/json;base64,\";\r\n        return string(abi.encodePacked(\r\n            baseURL, \r\n            Base64.encode(\r\n                bytes(abi.encodePacked(\r\n                    '{\"name\": \"MorseNFT\",', \r\n                    '\"description\": \"Morse Code NFT\",', \r\n                    '\"attributes\": \"\",', \r\n                    '\"image\":', _imageURI, '}'\r\n                    )\r\n                ))\r\n            ));\r\n    }\r\n\r\n\r\n    //Open Zeppelin\r\n    function _beforeTokenTransfer(address from, address to, uint256 tokenId)\r\n        internal\r\n        override(ERC721, ERC721Enumerable)\r\n    {\r\n        super._beforeTokenTransfer(from, to, tokenId);\r\n    }\r\n\r\n    function _burn(uint256 tokenId) internal override(ERC721, ERC721URIStorage) {\r\n        super._burn(tokenId);\r\n    }\r\n\r\n    function tokenURI(uint256 tokenId)\r\n        public\r\n        view\r\n        override(ERC721, ERC721URIStorage)\r\n        returns (string memory)\r\n    {\r\n        return super.tokenURI(tokenId);\r\n    }\r\n\r\n    function supportsInterface(bytes4 interfaceId)\r\n        public\r\n        view\r\n        override(ERC721, ERC721Enumerable)\r\n        returns (bool)\r\n    {\r\n        return super.supportsInterface(interfaceId);\r\n    }\r\n\r\n}",
  "sourcePath": "C:\\Users\\alexc\\Desktop\\test NFT\\contracts\\TestNFT.sol",
  "compiler": {
    "name": "solc",
    "version": "0.8.0+commit.c7dfd78e.Emscripten.clang"
  },
  "schemaVersion": "3.4.3",
  "updatedAt": "2021-11-11T20:20:47.992Z",
  "networkType": "ethereum",
  "devdoc": {
    "kind": "dev",
    "methods": {
      "approve(address,uint256)": {
        "details": "See {IERC721-approve}."
      },
      "balanceOf(address)": {
        "details": "See {IERC721-balanceOf}."
      },
      "getApproved(uint256)": {
        "details": "See {IERC721-getApproved}."
      },
      "isApprovedForAll(address,address)": {
        "details": "See {IERC721-isApprovedForAll}."
      },
      "name()": {
        "details": "See {IERC721Metadata-name}."
      },
      "ownerOf(uint256)": {
        "details": "See {IERC721-ownerOf}."
      },
      "safeTransferFrom(address,address,uint256)": {
        "details": "See {IERC721-safeTransferFrom}."
      },
      "safeTransferFrom(address,address,uint256,bytes)": {
        "details": "See {IERC721-safeTransferFrom}."
      },
      "setApprovalForAll(address,bool)": {
        "details": "See {IERC721-setApprovalForAll}."
      },
      "symbol()": {
        "details": "See {IERC721Metadata-symbol}."
      },
      "tokenByIndex(uint256)": {
        "details": "See {IERC721Enumerable-tokenByIndex}."
      },
      "tokenOfOwnerByIndex(address,uint256)": {
        "details": "See {IERC721Enumerable-tokenOfOwnerByIndex}."
      },
      "totalSupply()": {
        "details": "See {IERC721Enumerable-totalSupply}."
      },
      "transferFrom(address,address,uint256)": {
        "details": "See {IERC721-transferFrom}."
      }
    },
    "version": 1
  },
  "userdoc": {
    "kind": "user",
    "methods": {},
    "version": 1
  }
}